:020000040800F2
:10000000E00E0520D1020008E9680008E558000864
:10001000A568000849040008BFC1000800000000EE
:100020000000000000000000000000000D020008B9
:10003000FD0800080000000069020008517F000868
:10004000EB020008EB020008EB020008EB020008DC
:10005000EB020008EB020008EB020008EB020008CC
:10006000EB020008EB020008EB020008EB020008BC
:10007000EB020008EB020008EB020008EB020008AC
:10008000EB020008EB020008EB020008EB0200089C
:10009000EB020008EB020008EB020008EB0200088C
:1000A000EB020008EB020008EB020008EB0200087C
:1000B000EB020008B5800008EB020008EB02000824
:1000C000EB020008EB020008EB020008EB0200085C
:1000D000EB0200088D880008EB020008EB02000824
:1000E000EB020008EB020008EB020008EB0200083C
:1000F000EB020008EB020008EB020008EB0200082C
:10010000EB020008396E0008EB020008EB02000861
:10011000EB020008EB020008EB020008EB0200080B
:10012000EB020008EB0200086107000871070008F5
:10013000EB020008EB020008EB020008EB020008EB
:10014000EB020008EB020008EB020008ED68000873
:10015000EB0200088107000891070008EB02000885
:10016000EB020008EB020008EB020008EB020008BB
:10017000EB020008EB020008EB02000800000000A0
:10018000EB020008EB020008EB020008EB0200089B
:10019000EB020008EB020008EB020008EB0200088B
:1001A000455D0008EB020008EB020008EB020008C6
:1001B000EB020008EB020008EB020008EB0200086B
:1001C000EB020008EB02000800000000EB02000850
:1001D000EB020008EB020008EB020008EB0200084B
:1001E000EB020008EB020008EB020008EB0200083B
:1001F000EB020008EB020008DFF80CD000F012F967
:1002000000480047A5F40008E00E05202D4B1968B2
:100210000868B0E8F04F80F30988BFF36F8F4FF0A4
:10022000000080F311887047000000000848006853
:10023000006880F308884FF0000080F3148862B6ED
:1002400061B6BFF34F8FBFF36F8F00DF00BF00BFFA
:1002500008ED00E0DFF80C00016841F47001016076
:10026000704700BF88ED00E0EFF30980BFF36F8FA8
:10027000144B1A681EF0100F08BF20ED108A20E9F9
:10028000F04F106009B44FF0500072B680F311883F
:10029000BFF34F8FBFF36F8F62B610F0D9FE4FF0F0
:1002A000000080F3118809BC19680868B0E8F04FB5
:1002B0001EF0100F08BFB0EC108A80F30988BFF35E
:1002C0006F8F7047A4000220EFF305807047000095
:1002D0000648804706480047FEE7FEE7FEE7FEE7E0
:1002E000FEE7FEE7FEE7FEE7FEE7FEE751800008D7
:1002F000F90100082DE9F05F0546002092469B4673
:1003000088460646814640241BE02846414647462B
:10031000224600F076F853465A46C01A914110D34F
:1003200011461846224600F05DF82D1A67EB0108C9
:100330004F4622460120002100F054F817EB000937
:100340004E41201EA4F10104DFDC484631462A4616
:100350004346BDE8F09F40EA01039B0703D009E054
:1003600008C9121F08C0042AFAD203E011F8013BA1
:1003700000F8013B521EF9D27047D2B201E000F8FA
:10038000012B491EFBD270470022F6E710B5134639
:100390000A4604461946FFF7F0FF204610BD421EEC
:1003A00012F8013F002BFBD111F8013B02F8013B91
:1003B000002BF9D1704710B5002200E0521C835C7D
:1003C0008C5CA34201D1002BF8D1D8B2E1B2401A23
:1003D00010BD034611F8012B00F8012B002AF9D1BA
:1003E00018467047202A04DB203A00FA02F1002068
:1003F00070479140C2F1200320FA03F31943904063
:100400007047202A04DB203A21FA02F000217047CD
:1004100021FA02F3D040C2F120029140084319466C
:1004200070470000064C074D06E0E06840F001030D
:1004300094E8070098471034AC42F6D3FFF7E0FE8B
:10044000686A0108886A010800BFFEE710B502204B
:100450000CF074FE10BD000010B5002240211248BF
:1004600001F06BF91148006820F0C0000F490860E6
:100470000846006840F040000860FFF7E7FF0022F0
:1004800008210A4801F059F9FFF7E0FF0122402155
:10049000054801F052F9FFF7D9FF00224021024838
:1004A00001F04BF910BD0000001C0240002002408A
:1004B00000B587B000BF1648006840F080001449BE
:1004C00008600846006800F08000019000BF00BF8F
:1004D00000BF0846006840F4807008600846006865
:1004E00000F48070019000BF00BF40200290012006
:1004F000039004900320059002A9064801F000F83B
:100500000820029002A9044800F0FAFF07B000BDDD
:1005100030380240001C02400020024010B500228A
:100520004021124801F009F91148006820F0C0008C
:100530000F4908600846006840F040000860FFF777
:1005400085FF012208210A4801F0F7F8FFF77EFF36
:1005500001224021054801F0F0F8FFF777FF002263
:100560004021024801F0E9F810BD0000001C0240E3
:100570000020024070B5054600241748006820F0AE
:10058000C000154908600846006808601E200CF08D
:10059000D5FD002616E000224021104801F0CDF8DC
:1005A000FFF754FF012240210C4801F0C6F8600615
:1005B000040E0821084801F0AFF808B1601CC4B26D
:1005C000701CC6B2082EE6DB15B9FFF7A7FF01E0E5
:1005D000FFF742FF204670BD00200240001C024091
:1005E00070B504461A48006820F0C0001849086039
:1005F0000846006840F0400008600022402115488D
:1006000001F09BF8FFF722FF00251EE0E00928B16A
:10061000012208210E4801F090F804E00022082190
:100620000B4801F08AF86006040E012240210948B7
:1006300001F083F8FFF70AFF00224021054801F08E
:100640007CF8FFF703FF681CC5B2082DDEDB70BD28
:1006500000200240001C024010B51248006820F043
:10066000C000104908600846006840F0400008607B
:10067000012208210B4801F060F8012240210A48BC
:1006800001F05BF81E200CF059FD002208210548FE
:1006900001F053F8FFF7DAFE00224021024801F092
:1006A0004CF810BD00200240001C024010B510485C
:1006B000006820F0C0000E4908600846006840F05D
:1006C00040000860012240210A4801F036F81E204F
:1006D0000CF034FD00220821054801F02EF8FFF748
:1006E000B5FE01220821024801F027F810BD0000E4
:1006F00000200240001C024010B50024164800688B
:1007000020F0C00014490860084600680860012213
:100710000821114801F011F8012240210F4801F091
:100720000CF8FFF793FE09E0601CC4B2FA2C03DD5D
:10073000FFF7BCFF012010BDFFF788FE0821064827
:1007400000F0EAFF0028EFD100224021034800F02A
:10075000F4FF0020EFE7000000200240001C0240F0
:1007600010B5024800F05CFC10BD000064C4042019
:1007700010B5024800F054FC10BD0000FCC104207C
:1007800010B5024800F04CFC10BD00005CC2042013
:1007900010B5024800F044FC10BD0000C4C40420A1
:1007A0000146087810381823B0FBF3F20848805C43
:1007B000C865032A05D908686FF30900001D88651C
:1007C00003E008686FF309008865886D70470000D2
:1007D00040650108014600208A6A8B69CBB932B1B5
:1007E000012A0DD0022A03D0032A10D10EE000BF47
:1007F000CB6A03F08073B3F1807F00D1012007E062
:10080000CB6AB3F1C07F00D1012001E000E000BF5E
:1008100034E08B69B3F5005F1AD132B1012A07D0F9
:10082000022A03D0032A11D10AE000BF01200EE002
:10083000CB6A03F08073B3F1807F00D1012006E022
:10084000CB6AB3F1C07F00D1012000E000BF15E00A
:1008500032B1012A05D0022A04D0032A0CD103E0C8
:1008600000BF00BF012008E0CB6A03F08073B3F142
:10087000807F00D1012000E000BF00BF704730B58D
:100880000468246824F4802405682C60046863608C
:100890008468402C04D10468A2600468E16003E02D
:1008A0000468A1600468E26030BD0146002205E0F2
:1008B000002301F5207040F82230521C0F2AF7D394
:1008C000002204E0002301F11C008354521CB2F505
:1008D000007FF7D300200870487001208870002046
:1008E000C1F8BC0201230B7640238B7100234B76A9
:1008F00081F81C32012381F81D3270477047704720
:1009000030B5034614460022DA680022D1E900051A
:1009100040EA05200D8940EA05400D7B40EA05606C
:100920000243DA60002030BD30B503461446002291
:100930009A680022D1E9000540EA05200D8940EAC5
:1009400005400D7B40EA056002439A60002030BDFF
:1009500010B50246002313680A480340486840F077
:1009600008008C682043CC6820430C6920434C6904
:1009700040EA44208C6940EA44300343136000207D
:1009800010BD00008101F0FF30B5024600230024B5
:100990000868012816D013686FF30E03D1E901052A
:1009A0002843CD6828430D6928434D6928438D6944
:1009B0002843CD6928430D6A28434D6A28430343E1
:1009C000136019E0136823F4F843D1E907052843BD
:1009D0004D6A2843034354686FF30E04D1E90105BF
:1009E0002843CD6828430D6928434D6928438D6904
:1009F0002843044313605460002030BD0246506910
:100A000040EA410050610020704718B503460020BD
:100A10000090D1E9000420438C68641E40EA441031
:100A2000CC6840EA4420009000981861002018BD6E
:100A300070B50346154600220024012D1FD09A6888
:100A400002F070420868401E4E68761E40EA0616A4
:100A50008868401E46EA0026C868401E46EA0036FE
:100A6000088A401E46EA0046888A401E46EA00562A
:100A7000087E401E46EA006002439A6022E09A68BF
:100A800011480240C868401E0603888A401E46EA94
:100A900000500243DC6804F070440868401E4E6851
:100AA000761E40EA06168868401E46EA0026088A36
:100AB000401E46EA0046087E401E46EA00600443A7
:100AC0009A60DC60002070BDFF0F0FFF00B589B099
:100AD00000BF4F48006840F080004D49086008465C
:100AE000006800F08000019000BF00BF00BF084612
:100AF000006840F4807008600846006800F4807068
:100B0000019000BF00BF80200290002003900120D0
:100B100004900320059002A93E4800F0F1FC4FF438
:100B2000807002900120039002A93B4800F0E8FC8D
:100B3000FFF7BEFC00224FF48071374800F0FDFD46
:100B40000A2000F053FC01221102334800F0F5FDA9
:100B50000A2000F04BFC80200290002003900490BB
:100B60000320059002A92B4800F0CAFC642000F085
:100B70003DFC042207A948F2401000F067F800206D
:100B80008DF8200007A925A00BF006FD264890F857
:100B9000440040F08000244981F84400084690F861
:100BA00044002249497D01F0010108431E4981F8B2
:100BB00044001FA107A8FFF7FEFB30BB02208DF801
:100BC0001C00012207A948F2400000F06BF9012245
:100BD00007A948F2470000F039F89DF81C0060288A
:100BE00004DA9DF81C1014A00BF0D6FC0A2000F0CB
:100BF000FDFB00208DF81C00012207A948F24000EF
:100C000000F050F9002009B000BD0120FBE7000012
:100C100030380240001C0240002002404354502063
:100C200049443A25730D0A00A8C90420C8BE04200F
:100C3000393134370000000044656661756C7420FA
:100C40005665723A25640D0A000000002DE9F04156
:100C500005460F461646FFF7FFFC2820FFF7C0FCAD
:100C6000FFF74AFD2812FFF7BBFCFFF745FDE8B28E
:100C7000FFF7B6FCFFF740FDFFF7EEFC2920FFF77A
:100C8000AFFCFFF739FD00240BE0711EA14201D03B
:100C9000012100E000210846FFF76CFC3855601C7C
:100CA000C4B2B442F1DBFFF701FDBDE8F081000002
:100CB00071B583B00024002676480078401C754941
:100CC0000870084600780A2190FBF1F201FB12003F
:100CD00018B1704800780A287EDA012203A948F288
:100CE0004E10FFF7B3FF9DF80C0000F0800068B1D4
:100CF0009DF80C0000F00F00062807DA0020019094
:100D0000012201A948F24E1000F0CCF89DF80C0029
:100D100000F00F0000285FD09DF80C0000F00F00DD
:100D20000628D9DA9DF80C0000F00F01FF2088405A
:100D3000C0B20190584890F834509DF80400C04368
:100D400080B240F0C000544988860846818981827B
:100D5000018C0185002445E04F48808E0121A1408F
:100D6000084010B34D4931F81400042202A9FFF7DE
:100D70006DFF494890F8440000F00100B0B19DF8C3
:100D800008009DF8091000EB012081B242480C30A8
:100D900020F814109DF80A009DF80B1000EB0120BC
:100DA00081B23D48203020F8141019E09DF8080069
:100DB0009DF8091000EB012081B23748203020F85F
:100DC00014109DF80A009DF80B1000EB0120C0F5EF
:100DD000887081B2304800E033E00C3020F8141005
:100DE000601CC4B2052CB7DB01262B4880892C4936
:100DF000C98A884205DC2848008C2949098B884229
:100E00001CDD9DF80C0000F00F0001280ADD2248CF
:100E1000C089214988810846408C088400201D49EA
:100E200008700EE01C48808A1B4988810846008DA6
:100E30000884802003900846858602E0002015493A
:100E400008709DF80C0000F08F00802817D1124820
:100E500090F8340000F0800030B10F48808E20F010
:100E600080000D4988860AE04FF6FF700A498881A4
:100E70000884084690F8340000F0E00088860548B1
:100E80000078F02802DD0A2002490870304604B0DC
:100E900070BD0000A0000220A8C90420506901080C
:100EA000C8BE04202DE9F04104460E4617464FF017
:100EB0000008FFF7D1FB2820FFF792FBFFF71CFC8F
:100EC0002012FFF78DFBFFF717FCE0B2FFF788FB5E
:100ED000FFF712FC00250BE0705DFFF781FBFFF7C9
:100EE0000BFC8046B8F1000F00D003E0681CC5B2CF
:100EF000BD42F1DB00BFFFF7D9FB4046BDE8F08102
:100F00002DE9F05F8246884614462046E21704EB3E
:100F10005272D2102146E31704EB5373DB10A4EB9B
:100F2000C3030BB1012300E000231A44624302F023
:100F3000FF099AF800600AF1010082460578812EC7
:100F400005DB402D03DBFF2D01D0FF2E0DD14FF02F
:100F5000000B06E0002008F8010B0BF1010000F087
:100F6000FF0BCB45F6DBBDE8F09F7F2D03DAA5F143
:100F70004000C5B202E0A5F14100C5B2A6F1810072
:100F8000C6B2BE2010FB065000FB09F70C2C06D0A1
:100F9000102C0DD0182C14D0202C24D11AE013487A
:100FA000D0F80900C1194A4640460BF07DF91AE015
:100FB0000E48D0F81100C1194A4640460BF074F9AA
:100FC00011E00A48D0F81900C1194A4640460BF012
:100FD0006BF908E00548D0F82100C1194A4640469F
:100FE0000BF062F900BF00BF00BFBCE77CC9042062
:100FF000014691F83500022803D080204865012081
:101000007047052081F835000868006820F001006D
:101010000A6810600020F3E70146486D7047000041
:10102000F8B50446002000908C4800684FF4165133
:10103000B0FBF1F7A56D2E6894F85C10082088408D
:10104000304098B12068006800F0040070B120685A
:10105000006820F004002168086094F85C10082003
:101060008840A860606D40F00100606594F85C10F5
:1010700001208840304068B12068406900F080005D
:1010800040B194F85C1001208840A860606D40F089
:101090000200606594F85C1004208840304068B11C
:1010A0002068006800F0020040B194F85C10042051
:1010B0008840A860606D40F00400606594F85C10A2
:1010C00010208840304078B32068006800F00800A5
:1010D00050B394F85C1010208840A8602068006825
:1010E00000F4802080B12068006800F4002028B956
:1010F000206CC8B12046216C884715E0A06C98B1DF
:101100002046A16C88470FE02068006800F48070DA
:1011100028B92068006820F0080021680860206C69
:1011200010B12046216C884794F85C10202088403C
:101130003040002865D02068006800F010000028CA
:101140005FD094F85C1020208840A86094F83500A7
:10115000052828D12068006820F016002168086062
:101160002068406920F0800021684861206C08B93F
:10117000A06C28B12068006820F008002168086091
:1011800094F85C103F208840A86000BF002084F8DD
:10119000340000BF012084F83500206D10B12046D6
:1011A000216D8847F8BD2068006800F4802080B178
:1011B0002068006800F4002028B9606C10B1204657
:1011C000616C88471DE0E06BD8B12046E16B884731
:1011D00017E02068006800F4807068B92068006833
:1011E00020F010002168086000BF002084F834005F
:1011F00000BF012084F83500E06B10B12046E16BA0
:101200008847606D38B3606D00F00100F0B10520D3
:1012100084F835002068006820F00100216808602B
:1012200000BF0098401C0090B84200D905E020683B
:10123000006800F001000028F3D100BF00BF0020CB
:1012400084F8340000BF012084F83500E06C10B150
:101250002046E16C884700BFA4E70000640002203C
:101260002DE9F0410446002500F06EFA074614B956
:101270000120BDE8F081606A00B100BF00BF00201E
:1012800084F8340000BF022084F83500206800682C
:1012900020F00100216808600AE000F055FAC01B48
:1012A000052805D920206065032084F83500E0E793
:1012B0002068006800F001000028EED12068056871
:1012C00021480540D4E901010843E1680843216948
:1012D000084361690843A1690843E1690843216A39
:1012E00008430543606A042803D1D4E90B0108438D
:1012F0000543206805602068456925F00705606A98
:101300000543606A04280DD1A06A0543E06A48B12C
:101310002046FFF75FFA28B140206065012084F87D
:101320003500A6E7206845612046FFF739FA0646F2
:1013300094F85C103F208840B06000206065012078
:1013400084F83500002094E73F8010E02DE9F04755
:1013500004460D4616461F464FF00008D4F8589034
:1013600000BF94F83400012802D10220BDE8F087C4
:10137000012084F8340000BF94F8350001282BD1F7
:10138000022084F83500002060653B46324629463D
:101390002046FFF774FA94F85C103F208840C9F8A3
:1013A00008002068006840F0160021680860206886
:1013B000406940F0800021684861206C28B12068B5
:1013C000006840F00800216808602068006840F06C
:1013D00001002168086006E000BF002084F83400A6
:1013E00000BF4FF002084046C0E7000070B5044659
:1013F00000F0AAF906462546681C10B1044800789A
:10140000054400BF00F0A0F9801BA842FAD370BDCC
:101410006000022000B587B0142102A8FEF7B4FFD7
:101420003048006808B107B000BD01202D490860B0
:1014300000BF2D48006840F001002B4908600846B5
:10144000006800F00100019000BF00BF4FF63F00B0
:1014500002900220039000200490032005900C20AD
:10146000069002A9214800F04BF80D2002900220BE
:10147000039000200490032005900C20069002A900
:101480001B4800F03DF848F23730029002200390EC
:1014900000200490032005900C20069002A9154816
:1014A00000F02EF84FF6807002900220039000208A
:1014B0000490032005900C20069002A90E4800F02D
:1014C0001FF84DF6737002900220039000200490E4
:1014D000032005900C20069002A9084800F010F89F
:1014E00000BFA0E738000220383802400014024054
:1014F000000802400018024000100240000C0240A8
:10150000F8B502460B46002100250024002000BF4C
:10151000E4E0012606FA01F51E6806EA0504AC427D
:1015200071D15E68022E02D05E68122E13D1CF08F0
:1015300002F1200656F827004E07F70E0F26BE4090
:10154000B0434F07FF0E1E69BE403043CF0802F183
:10155000200646F8270010684F000326BE40B0431F
:101560001E7906F003064F00BE40304310605E68EF
:10157000012E08D05E68022E05D05E68112E02D0C2
:101580005E68122E13D190684F000326BE40B04310
:101590004F00DE68BE4030439060506801268E40A8
:1015A000B0431E79C6F300168E4030435060D068B9
:1015B0004F000326BE40B0434F009E68BE403043FC
:1015C000D0605E6806F08056B6F1805FA8D100BF9B
:1015D000444E366846F48046424F3E603E4636688A
:1015E00006F48046009600BF00BF3F4E8F0856F8B5
:1015F00027008E07370F0F26BE40B0433B4EB24246
:1016000002D100262EE068E0394EB24201D1012617
:1016100028E0384EB24201D1022623E0364EB242D3
:1016200001D103261EE0354EB24201D1042619E055
:10163000334EB24201D1052614E0324EB24201D1FE
:1016400006260FE0304EB24201D107260AE02F4EA7
:10165000B24201D1082605E02D4EB24201D1092641
:1016600000E00A268F073F0FBE4030431E4E8F0812
:1016700046F82700274E3068A0435E6806F480369F
:10168000B6F5803F00D12043224E3060361D3068D1
:10169000A0435E6806F40036B6F5003F00D1204353
:1016A0001C4E361D3060361D3068A0435E6806F45F
:1016B0008016B6F5801F00D12043164E08363060E4
:1016C000361D3068A0435E6806F40016B6F5001FAC
:1016D00000D120430F4E0C363060491C1029FFF416
:1016E00018AFF8BD443802400838014000000240FD
:1016F0000004024000080240000C024000100240BA
:101700000014024000180240001C02400020024069
:1017100000240240003C0140024613690B400BB11B
:10172000012000E00020704742690A408A4202D14D
:101730000A04826100E0816170470AB1816101E0C1
:101740000B04836170470000014800687047000087
:101750005800022010B50446D4F8C00207F0ACFDD2
:1017600010BD10B50446D4F8C00207F0C7FD10BD87
:1017700010B5044620680AF00DF910BD10B50446F6
:1017800020680AF00EF910BD024601EB810302F158
:10179000380000EBC30090F824007047024601EBCC
:1017A000810302F1380000EBC3004069704770B557
:1017B00004460D46002600BF94F8B802012801D166
:1017C000022070BD012084F8B80200BF29462068BD
:1017D0000AF0F8F800BF002084F8B80200BF3046D5
:1017E000EFE72DE9FE4F04460D4616461F46DDE99C
:1017F0000D9ADDF8308000BF94F8B802012802D1BC
:101800000220BDE8FE8F012084F8B80200BF00214D
:1018100005EB850204F1380000EBC200417105EBD5
:10182000850104F1380000F8317005EB850100EB0B
:10183000C100A0F808A005EB850104F1380000EB19
:10184000C100457005EB850104F1380000EBC100D3
:1018500080F8079006F07F0105EB850204F138005F
:1018600000EBC200817006F08000802808D10121C1
:1018700005EB850204F1380000EBC200C17007E0FF
:10188000002105EB850204F1380000EBC200C170B5
:1018900005EB850104F1380000EBC10080F80480FD
:1018A0008DE800073B463246294620680AF045F994
:1018B000834600BF002084F8B80200BF5846A0E766
:1018C00070472DE9F05F04460D4616461F46DDE9D8
:1018D0000C9BDDE90A8A05EB850104F1380000EB79
:1018E000C100C67005EB850104F1380000EBC100B2
:1018F000C771B8F1000F08D1032105EB850204F18F
:10190000380000EBC200817207E0022105EB85027E
:1019100004F1380000EBC200817237B1012F74D09E
:10192000022F2BD0032F71D15DE0B8F1010F24D12C
:101930001EBBB9F1000F07D1012105EB850204F1AF
:10194000380000EBC200417605EB850104F1380058
:1019500000EBC100407E40B9002105EB850204F197
:10196000380000EBC200817207E0022105EB85021E
:1019700004F1380000EBC200817275E0CEB905EBCE
:10198000850104F1380000EBC100407E40B9002120
:1019900005EB850204F1380000EBC200817221E002
:1019A000022105EB850204F1380000EBC2008172D0
:1019B00018E005EB850104F1380000EBC100007E62
:1019C00040B9002105EB850204F1380000EBC200AC
:1019D000817207E0022105EB850204F1380000EB7B
:1019E000C200817240E0DEB905EB850104F13800E8
:1019F00000EBC100407E50B9002105EB850204F1E7
:101A0000380000EBC200817223E023E02BE00221CA
:101A100005EB850204F1380000EBC200817218E08A
:101A200005EB850104F1380000EBC100007E40B9F0
:101A3000002105EB850204F1380000EBC200817241
:101A400007E0022105EB850204F1380000EBC2003B
:101A5000817209E0002105EB850204F1380000EBFA
:101A6000C200817200E000BF00BF05EB850104F1F8
:101A7000380000EBC100C0F80CA005EB850104F1B3
:101A8000380000EBC100C0F81090002105EB850282
:101A900004F1380000EBC20080F8241005EB850249
:101AA00004F1380000EBC200416105EB850104F14F
:101AB000380000EBC1004570002105EB850204F100
:101AC000380000EBC20080F82510227C05EB850C65
:101AD00004F1380303EBCC0120680AF011F9BDE8EA
:101AE000F09F2DE9F0410446D4F800804646206876
:101AF00009F063FF012871D120680AF099FA08B94A
:101B0000BDE8F08120680AF093FA00F40010B0F507
:101B1000001F03D14FF400102168486120680AF0CB
:101B200087FA00F48010B0F5801F03D14FF48010C5
:101B30002168486120680AF07BFA00F08060B0F10B
:101B4000806F03D14FF080602168486120680AF0FF
:101B50006FFA00F00200022801D121684861206874
:101B60000AF066FA00F00050B0F1005F10D1D6F82C
:101B7000400420F02E00C6F840042046FFF7F1FD97
:101B8000012120680AF032FA4FF0005021684861C4
:101B900020680AF04DFA00F08070B0F1807F02D129
:101BA000204603F0ABFD20680AF042FA00F008007E
:101BB000082805D1204600F0F1F808202168486186
:101BC00020680AF035FA00F00070B0F1007F27D1EC
:101BD00020680AF08DF8074600251AE035E005F088
:101BE0000F0101208840384090B106F5A06000EB5D
:101BF0004510006800F40040B0F5004F04D1E9B290
:101C0000204603F01EF803E0E9B2204603F0D1FAC3
:101C10006D1CA068A842E2D84FF0007021684861AE
:101C200020680AF005FAC0F3001070B120688069DE
:101C300020F0100021688861204603F0CFFD206865
:101C4000806940F010002168886100BF58E710B536
:101C50008AB0044614B901200AB010BD94F8B90244
:101C600028B9002084F8B802204600F023F80320A9
:101C700084F8B902206809F009FE282204F1100155
:101C80006846FEF768FB94E80F0009F09DFD01210E
:101C900020680AF001FA282204F110016846FEF7D4
:101CA0005AFB94E80F000AF029F9012084F8B902E0
:101CB0000020D1E710B588B0044600BF2B4800686B
:101CC00040F00100294908600846006800F0010062
:101CD000029000BF00BF4FF4C05003900220049058
:101CE00000200590032006900A20079003A92048B1
:101CF000FFF706FC4FF4806003901220049001204F
:101D000005900A20079003A91948FFF7F9FB012164
:101D1000032004F038FE00BF1448001D006840F0A6
:101D200080001249091D08600846006800F0800024
:101D3000029000BF00BF0D481430006840F480409E
:101D40000A49143108600846006800F48040019098
:101D500000BF00BF00BF00220621432000F06EFB41
:101D6000432000F05BFB08B010BD0000303802409B
:101D70000000024010B50446D4F8C00207F092FB00
:101D800010BD10B50446D4F8C00207F08FFB10BD9B
:101D900010B5044620680AF061F910BD10B504467C
:101DA000D4F8C00207F035FB10BD10B5044600BFE3
:101DB00094F8B802012801D1022010BD012084F856
:101DC000B80200BF206809F0B0FD0121206809F0C9
:101DD00087FD00BF002084F8B80200BF00BFECE719
:101DE00010B5044600BF94F8B802012801D10220C2
:101DF00010BD012084F8B80200BF20680AF067F91E
:101E000000BF002084F8B80200BF00BFF0E7000068
:101E1000034800680349097808440149086070478D
:101E2000580002206000022010B50A48006840F403
:101E30000070084908600846006840F48070086037
:101E4000032000F039FB0F2000F006F800F092FAB2
:101E5000002010BD003C024070B504460E480078DA
:101E60004FF47A71B1FBF0F00C490968B1FBF0F561
:101E7000284602F01BFA08B1012070BD102C07D2D1
:101E800000222146501E00F0D9FA0548046001E006
:101E90000120F2E70020F0E7600002206400022049
:101EA0005C00022070B504460E46154600BF94F84B
:101EB000A000012801D1022070BD012084F8A000FB
:101EC00000BF022084F8A10005EB850101EBC502EB
:101ED00004F1380101EB820034223146FEF73BFA6F
:101EE0002A463146204604F053F801202168486212
:101EF00084F8A10000BF002084F8A00000BF00BF4C
:101F0000DAE7704770B504462068856B2068466B39
:101F100005F00400E0B106F00400C8B12068406B91
:101F200020F004002168486304202168C863D4F8C5
:101F3000A40040F00100C4F8A400042084F8A1002B
:101F400000BF002084F8A00000BF2046FFF7D9FFA3
:101F500005F00200E0B106F00200C8B12068406B55
:101F600020F002002168486302202168C863D4F889
:101F7000A40040F00200C4F8A400042084F8A100EA
:101F800000BF002084F8A00000BF2046FFF7B9FF83
:101F900005F00100A8B106F0010090B12068406B87
:101FA00020F001002168486301202168C86384F89B
:101FB000A10000BF002084F8A00000BF204600F070
:101FC000A7F805F00800B0B106F0080098B1206845
:101FD000406B20F008002168486308202168C8632E
:101FE000012084F8A10000BF002084F8A00000BFF9
:101FF000204600F051F970BD70B504460CB90120BF
:1020000070BD94F8A10028B9002084F8A0002046F3
:1020100000F080F8022084F8A1002068806920F098
:10202000704021688861D4E901010843E1680843F0
:10203000216908432168896908432168886120680B
:1020400080683249084021688860A08A05042068B9
:102050008068A16929430843216888602068C068B6
:102060002A4908402168C860A08B05042068C06820
:10207000216A294308432168C86020680069234910
:10208000084021680861A08C050420680069A16AE5
:102090002943084321680861206840691B490840BA
:1020A00021684861A08D050420684069216B29439F
:1020B00008432168486194F83500050294F8360019
:1020C00006042068C06A00F07F402168C86246EAC2
:1020D000050094F8341008432168C96A0843216850
:1020E000C8622068406B40F00600216848632068A1
:1020F000806940F00100216888610020C4F8A400D4
:10210000012084F8A10000207AE7000000F800F028
:102110007047000010B586B00446142101A8FEF7F0
:1021200033F95649206888427ED100BF5448006880
:1021300040F08060524908600846006800F0806006
:10214000009000BF00BF00BF4D481438006840F445
:1021500080704B49143908600846006800F48070AC
:10216000009000BF00BF00BF0846006840F020009C
:1021700008600846006800F02000009000BF00BF23
:1021800000BF0846006840F001000860084600688B
:1021900000F00100009000BF00BF00BF08460068CB
:1021A00040F0800008600846006800F08000009061
:1021B00000BF00BF00BF0846006840F04000086054
:1021C0000846006800F04000009000BF00BF40F2E9
:1021D000F7600190022002900020039003200490F9
:1021E0000E20059001A92748FFF78AF94FF4806077
:1021F00001900220029000200390032004900E2002
:10220000059001A92048FFF77BF9202001900220CA
:10221000029000200390032004900E20059001A955
:102220001A48FFF76DF900E025E04FF47A4001907D
:102230000220029000200390032004900E200590BD
:1022400001A91348FFF75CF94FF40C6001900220DC
:10225000029000200390032004900E20059001A915
:102260000C48FFF74DF900220F21582000F0E6F846
:10227000582000F0D3F806B010BD000000680140FF
:102280004438024000200240001402400000024096
:10229000001C02400018024070472DE9F04104463E
:1022A0000E461746984600BF94F8A000012802D1B8
:1022B0000220BDE8F081012084F8A00000BF0220C8
:1022C00084F8A10008EB880000EBC80104F1380095
:1022D00000EB81052E60A86A30446860AF60E86A50
:1022E0003844E86042462946204603F051FE01206A
:1022F0002168486284F8A10000BF002084F8A00093
:1023000000BF00BFD5E72DE9F04104460E46174651
:10231000984600BF94F8A000012802D10220BDE831
:10232000F081012084F8A00000BF022084F8A10001
:1023300008EB880000EBC80104F1380000EB8105D0
:10234000286830446860A8683844E860AE62EF628C
:1023500042462946204603F01BFE012021684862C0
:1023600084F8A10000BF002084F8A00000BF00BFD7
:10237000D5E7000008B500BF1048006840F0805065
:102380000E4908600846006800F08050009000BFC9
:1023900000BF00BF081D006840F48040091D0860B0
:1023A0000846006800F48040009000BF00BF002293
:1023B0000F21901E00F042F808BD00004038024096
:1023C00070B504460E4615460CB9012070BD94F850
:1023D000210028B9002084F82000204600F019F8D8
:1023E000211D2068FEF7B4FA3146D4E90002FEF759
:1023F0009BFA2946D4E90002FEF782FA20680068B9
:1024000040F0040021680860012084F821000020C9
:10241000DCE710B50446FEF7FDFF10BD0146084697
:10242000002809DB00F01F0301229A4043099B00AA
:1024300003F1E023C3F8002100BF70472DE9F05FEE
:1024400080460D46164600270AF0B6F8074639467C
:102450002A46334601F00700C0F1070ABAF1040F1B
:1024600002D94FF0040A01E0C0F1070AD14600F199
:10247000040ABAF1070F02D24FF0000A01E0A0F1FE
:10248000030AD4464FF0010A0AFA09FAAAF1010A2E
:102490000AEA020A0AFA0CFA4FF0010B0BFA0CFBDB
:1024A000ABF1010B0BEA030B4AEA0B042146404651
:1024B0000AF08AF8BDE8F09F00BF00F00702064B63
:1024C00019684FF6FF031940044B0B4343EA0221FE
:1024D000014B196000BF70470CED00E00000FA05E9
:1024E00038B5002400BF2048006840F080501E49E5
:1024F00008600846006800F08050009000BF00BFF0
:102500001A48006840F4803018490860FFF71CF949
:10251000044607E0FFF718F9001BB0F57A7F01D9F0
:10252000032038BD1148406800F48030B0F5803F8A
:10253000F0D10E48006840F400300C490860FFF705
:1025400003F9044607E0FFF7FFF8001BB0F57A7FB8
:1025500001D90320E5E70548406800F40030B0F5F4
:10256000003FF0D10020DCE740380240007000401E
:102570002DE9F84304460D4616460127FFF7E4F817
:102580008046A86900B100BFE86900B100BF286AB1
:1025900000B100BF00BF94F84000012802D1022022
:1025A000BDE8F883012084F8400000BF94F84100A2
:1025B000012828D100206064022084F841004346AD
:1025C000002220212046009604F046FB0746DFB992
:1025D00000222946204604F0FDF9686A78B943468E
:1025E000012202212046009604F036FB07465FB91F
:1025F00002202168C860012084F8410004E0012025
:1026000084F8410000E0022700BF002084F8400069
:1026100000BF3846C4E70000F8B504460125FFF7BF
:1026200093F806460CB90120F8BD206A402800D076
:1026300000BF00BF94F84000012801D10220F3E759
:10264000012084F8400000BF94F8410050B90020F8
:1026500084F84000204600F04BF841F288312046D3
:1026600000F031F92068006820F4F851A068401E9D
:1026700041EA002021680860A06C33460022202136
:102680000090204604F0E8FA054635BB2179E06861
:1026900040EA0160E1690843216A0843216809684A
:1026A000114A1140084321680860208A616941EAA3
:1026B0000040A1690843216849680C4A1140084359
:1026C000216848602068006840F0010021680860C7
:1026D00000206064012084F8410000BF002084F8DD
:1026E000400000BF28469FE72FFFFF00FEF8E0FFF5
:1026F00010B586B00446142101A8FDF745FE354902
:102700002068884263D100BF3348006840F002006F
:10271000314908600846006800F00200009000BFE0
:1027200000BF00BF2C480838006840F020002A494C
:10273000083908600846006800F02000009000BFDB
:1027400000BF00BF0846006840F00200086008466D
:10275000006800F00200009000BF00BFC0200190A0
:10276000022002900020039003200490092005908D
:1027700001A91A48FEF7C4FE4FF4407001900220F0
:10278000029000200390032004900A20059001A9E4
:102790001248FEF7B5FE04200190022002900020AE
:1027A0000390032004900920059001A90C48FEF72E
:1027B000A7FE4020019002200290002003900320F9
:1027C00004900A20059001A90548FEF799FE06B07D
:1027D00010BD0000001000A0383802400014024074
:1027E000000402402DE9F84F04460E461746002526
:1027F000FEF7AAFF80462068D0F81890206800F104
:10280000200A00BF94F84000012802D10220BDE850
:10281000F88F012084F8400000BF94F8410001289F
:1028200049D100206064002E3FD0222084F841006E
:1028300020680069401CA06320680069401C606338
:1028400026632068406920F0406040F08060216885
:1028500048612068C0F8189012E043460122062122
:102860002046009704F0F8F9054605B10BE09AF808
:102870000010226B501C20631170A06B401EA063DF
:10288000A06B0028E9D100BF5DB9434601220221B7
:102890002046009704F0E0F9054615B902202168AA
:1028A000C860012084F8410006E0606C40F0080038
:1028B0006064012500E0022500BF002084F840008C
:1028C00000BF2846A3E7816470472DE9F84304461A
:1028D0000E4617460025FEF737FF8046206800F1B8
:1028E000200900BF94F84000012802D10220BDE871
:1028F000F883012084F8400000BF94F841000128CB
:1029000044D100206064002E3AD0122084F84100A7
:1029100020680069401CE06220680069401CA062D9
:1029200066622068406920F040602168486112E0DA
:102930004346012204212046009704F08DF9054604
:1029400005B10BE0616A481C6062087889F80000F4
:10295000E06A401EE062E06A0028E9D100BF5DB98C
:102960004346012202212046009704F075F90546EE
:1029700015B902202168C860012084F8410006E0F2
:10298000606C40F008006064012500E0022500BF93
:10299000002084F8400000BF2846A8E72DE9F8434E
:1029A0000446002600250027A846A946207800F006
:1029B000010088B100BFFE48006820F40000FC4917
:1029C000086008460068616B0843F949086000BF69
:1029D000606B08B94FF00108206800F40020B0F5E2
:1029E000002F13D1F2488430006820F44010E16BCE
:1029F0000843EF4984310860E06BB0F5801F01D1D6
:102A00004FF00108E06B08B94FF00109206800F4AD
:102A10008010B0F5801F13D1E5488430006820F4A1
:102A20004000216C0843E24984310860206CB0F515
:102A3000800F01D14FF00108206C08B94FF0010957
:102A4000206800F08070B0F1807F01D14FF0010864
:102A5000207800F02000202870D100BFD448383002
:102A6000006840F08050D24938310860084600685C
:102A700000F08050009000BF00BFCE48006840F4D6
:102A80008070CC490860FEF75FFE064607E0FEF75F
:102A90005BFE801B642802D90320BDE8F883C5488B
:102AA000006800F480700028F1D0C14868300068E8
:102AB00000F4407585B3208E00F44070A8422BD0FE
:102AC000BB486830006820F44075B9486830006839
:102AD00040F48030B649683108600846006820F448
:102AE0008030086008460560006800F0010098B179
:102AF000FEF72AFE064608E0FEF726FE801B41F29E
:102B00008831884201D90320C7E7A94868300068A6
:102B1000C0F340000028EFD000BF208E00F44070CA
:102B2000B0F5407F0BD1A248006820F4F810A24A0B
:102B3000216B114008439E49086006E010E09C4864
:102B4000006820F4F8109A490860994868300068D5
:102B5000218EC1F30B01084395496831086000BF1D
:102B6000207800F01000102810D100BF9048843069
:102B7000006820F080708E49843108600846006843
:102B8000A16B08438A498431086000BF208800F4A3
:102B90008040B0F5804F09D185488830006820F426
:102BA0004030616E0843824988310860208800F413
:102BB0000040B0F5004F09D17D488830006820F40E
:102BC0004020A16E08437A4988310860206800F4EB
:102BD0008030B0F5803F09D175488830006820F416
:102BE0004010E16E0843724988310860206800F4A3
:102BF0000030B0F5003F09D16D488830006820F4FE
:102C00004000216F08436A4988310860207800F04D
:102C10004000402809D166488830006820F0030051
:102C2000616C0843624988310860207800F08000B8
:102C3000802809D15E488830006820F00C00A16C23
:102C400008435B4988310860208800F48070B0F543
:102C5000807F09D156488830006820F03000E16C50
:102C60000843534988310860208800F40070B0F5AB
:102C7000007F09D14E488830006820F0C000216DE7
:102C800008434B4988310860208800F48060B0F523
:102C9000806F09D146488830006820F44070616D2B
:102CA0000843434988310860208800F40060B0F58B
:102CB000006F09D13E488830006820F44060A16D63
:102CC00008433B4988310860208800F48050B0F503
:102CD000805F09D136488830006820F44050E16DAB
:102CE0000843334988310860208800F40050B0F56B
:102CF000005F09D12E488830006820F44040216EE2
:102D000008432B4988310860206800F48000B0F542
:102D1000800F09D126488830006820F08060A16FBC
:102D20000843234988310860206800F40010B0F59A
:102D3000001F0FD11E488830006820F00060E16F4E
:102D400008431B4988310860E06FB0F1006F01D182
:102D50004FF00109207800F00800082801D14FF059
:102D60000109206800F48020B0F5802F09D11048B7
:102D70008830006820F04070616F08430C4988314A
:102D80000860206800F40000B0F5000F0AD1084880
:102D90008830006820F08050D4F88010084304493F
:102DA00088310860206800F08060B0F1806F05E035
:102DB0000838024000700040FFFCFF0F08D1CC48EB
:102DC000006820F00050D4F884100843C849086017
:102DD000206800F00060B0F1006F0AD1C448001F05
:102DE000006820F00070D4F888100843C049091F1B
:102DF0000860206800F08050B0F1805F0AD1BC48C4
:102E0000001F006820F08060D4F88C100843B84997
:102E1000091F0860B8F1010F03D02068B0F1007FEE
:102E20007ED1B3489038006820F08060B049903976
:102E30000860FEF789FC064606E0FEF785FC801B6D
:102E4000642801D9032028E6A94890380068C0F317
:102E5000C0600028F1D1207800F00100B8B1606BAB
:102E6000A8B9A3480C380068C0F30145A0480C3845
:102E70000068C0F303676068800140EA054040EAEB
:102E80000761207A41EA007099490C39086020688E
:102E900000F40020B0F5002F03D1E06BB0F5801FE7
:102EA00009D0206800F48010B0F5801F24D1206C78
:102EB000B0F5800F20D18E480C380068C0F3014572
:102EC0008B480C380068C0F302776068800140EAE4
:102ED0000541207B41EA006040EA077084490C39D3
:102EE00008608348001F006820F01F00616A491EC7
:102EF00008437F49091F0860206800F08070B0F126
:102F0000807F17D17A480C380068C0F30365784891
:102F10000C380068C0F3027760688101208A00E005
:102F200036E041EA004040EA056040EA0770704937
:102F30000C390860206800F00070B0F1007F0DD1FE
:102F400060688101208A41EA0041207B41EA0061FA
:102F5000207A41EA007066490C390860644890386C
:102F6000006840F08060624990390860FEF7ECFB31
:102F7000064606E0FEF7E8FB801B642801D9032023
:102F80008BE55B4890380068C0F3C0600028F1D042
:102F9000B9F1010F7ED156489038006820F080507A
:102FA000534990390860FEF7CFFB064606E0FEF76E
:102FB000CBFB801B642801D903206EE54C48903878
:102FC0000068C0F340700028F1D1206800F40020B0
:102FD000B0F5002F01D1E06B38B1206800F480100B
:102FE000B0F5801F22D1206C00BB41480838006832
:102FF000C0F301453E4808380068C0F302776069B5
:10300000800140EA0541207E41EA006040EA077005
:10301000374908390860081D006820F4F851A06A93
:10302000401E41EA00203249091F0860206800F470
:103030000010B0F5001F19D1E06FB0F1006F15D18D
:103040002B4808380068C0F3036529480838006831
:10305000C0F3027760698101208C41EA004040EAB8
:10306000056040EA0770224908390860207800F0BE
:103070000800082820D11E4808380068C0F30365FE
:103080001B4808380068C0F301476069800140EAC6
:10309000074000E02AE040EA0561207F41EA007035
:1030A000134908390860081D006820F44030E16ABF
:1030B00008430F49091F08600D489038006840F028
:1030C00080500B4990390860FEF73EFB064606E04B
:1030D000FEF73AFB801B642801D90320DDE4044895
:1030E00090380068C0F340700028F1D00020D4E48C
:1030F0009038024070B504460D4600260CB90120F8
:1031000070BD5C48006800F00F00A8420ED259481C
:10311000006820F00F002843564908600846006800
:1031200000F00F00A84201D00120E9E7207800F06C
:10313000020002281DD1207800F00400042805D1E7
:103140004D48006840F4E0504B490860207800F09A
:103150000800082805D14848006840F46040464906
:1031600008604548006820F0F000A1680843424923
:103170000860207800F0010090B36068012807D152
:103180003D4808380068C0F34040A0B90120B7E7C7
:103190006068022807D1384808380068C0F34060EA
:1031A00048B90120ACE7344808380068C0F3400053
:1031B00008B90120A4E73048006820F003006168E6
:1031C00008432D490860FEF7BFFA064609E0FEF7FE
:1031D000BBFA801B41F28831884202D903208FE775
:1031E00007E02548006800F00C006168B0EB810F33
:1031F000EDD12048006800F00F00A8420ED91D480C
:10320000006820F00F0028431A490860084600684B
:1032100000F00F00A84201D0012071E7207800F0F3
:103220000400042807D11448006820F4E050E16845
:10323000084311490860207800F00800082808D1E8
:103240000D48006820F46040216940EAC1000A4945
:10325000086000F03DF808490968C1F30311074A06
:10326000515CC840064908600F20FEF7F5FD0020BC
:1032700046E70000003C024008380240486501086B
:1032800064000220014800687047000064000220CA
:1032900000B5FFF7F7FF04490968C1F38221034A2B
:1032A000515CC84000BD0000083802405865010864
:1032B00000B5FFF7E7FF04490968C1F34231034A4B
:1032C000515CC84000BD0000083802405865010844
:1032D0002DE9F047002400250026A1462548006876
:1032E00000F00C0020B1042805D008283AD105E0F0
:1032F000DFF8849039E0DFF8849036E01D48001F45
:10330000006800F03F041B48001F006800F48000C4
:1033100078B11A481749091F0968C1F38811A0FB41
:1033200001700146224600233846FCF7E3FF0546BC
:103330000EE011480F49091F0968C1F38811A0FB6D
:1033400001700146224600233846FCF7D3FF0546AC
:103350000848001F0068C0F30140401C4600B5FB50
:10336000F6F902E0DFF8109000BF00BF4846BDE864
:10337000F0870000083802400024F40040787D0106
:10338000F8B5044600260CB90120F8BD207800F0FD
:103390000100002871D0F848006800F00C000428F3
:1033A0000DD0F548006800F00C00082813D1F24851
:1033B000001F006800F48000B0F5800F0BD1EE48CC
:1033C00008380068C0F34040002869D060680028D1
:1033D00066D10120D9E700BF6068B0F5803F08D111
:1033E000E5480838006840F48030E349083908604F
:1033F0002EE0606868B9E0480838006820F4803042
:10340000DD49083908600846006820F4802008601B
:103410001EE06068B0F5A02F0DD1D74808380068CD
:1034200040F48020D449083908600846006840F418
:10343000803008600CE0D0480838006820F4803004
:10344000CD49083908600846006820F480200860EB
:1034500000BF606890B1FEF777F9054606E0FEF719
:1034600073F9401B642801D903208EE7C24808384D
:103470000068C0F340400028F1D011E0FEF764F985
:10348000054606E0FEF760F9401B642801D90320D9
:103490007BE7B94808380068C0F340400028F1D104
:1034A000207800F00200022869D1B348006800F0DB
:1034B0000C0058B1B048006800F00C0008281CD17E
:1034C000AD48001F006800F48000B0B9AA48083871
:1034D0000068C0F3400020B1E068012801D001205D
:1034E00053E7A5480838006820F0F800216940EA51
:1034F000C100A1490839086041E0E06828B39E484E
:103500000838006840F001009B4908390860FEF760
:103510001BF9054606E0FEF717F9401B022801D902
:10352000032032E7944808380068C0F340000028C0
:10353000F1D091480838006820F0F800216940EA8D
:10354000C1008D490839086019E08B4808380068C7
:1035500020F00100884908390860FEF7F5F80546B3
:1035600006E0FEF7F1F8401B022801D903200CE722
:10357000814808380068C0F340000028F1D1207865
:1035800000F00800082836D16069D0B17A486C3064
:10359000006840F0010078496C310860FEF7D4F80B
:1035A000054606E0FEF7D0F8401B022801D90320AB
:1035B000EBE671486C300068C0F340000028F1D0A1
:1035C00019E06D486C30006820F001006A496C31E8
:1035D0000860FEF7B9F8054606E0FEF7B5F8401BAF
:1035E000022801D90320D0E663486C300068C0F39C
:1035F00040000028F1D1207800F00400042874D1A4
:103600005D483830006800F0805080B900BF5A48EB
:103610003830006840F0805057493831086008461B
:10362000006800F08050009000BF00BF01265348A2
:10363000006800F48070B0B95048006840F48070B1
:103640004E490860FEF780F8054606E0FEF77CF874
:10365000401B642801D9032097E64848006800F41D
:1036600080700028F2D000BFA068012808D142482D
:103670006830006840F001003F49683108602DE083
:10368000A06868B93C486830006820F001003A49F9
:10369000683108600846006820F0040008601DE0FA
:1036A000A06805280DD134486830006840F0040057
:1036B0003149683108600846006840F00100086040
:1036C0000CE02D486830006820F001002A4968317C
:1036D00008600846006820F00400086000BFA06889
:1036E000A8B1FEF731F8054609E02EE0FEF72CF808
:1036F000401B41F28831884201D9032045E61E482B
:1037000068300068C0F340000028EFD013E0FEF7F7
:103710001BF8054608E0FEF717F8401B41F2883118
:10372000884201D9032030E6134868300068C0F3AE
:1037300040000028EFD1012E07D10F483830006833
:1037400020F080500C4938310860A069F0B30A4875
:10375000006800F00C00082868D0A06902284DD14C
:1037600005480838006820F080700349083908606F
:10377000FDF7EAFF05460AE0083802400070004005
:10378000FDF7E2FF401B022801D90320FDE529488F
:103790000068C0F340600028F2D1D4E90701084373
:1037A000616A40EA81110122A06AC2EB500041EA3D
:1037B00000412C20005D41EA00613020005D41EABB
:1037C00000701C49091D0860081F00E030E0006817
:1037D00040F08070091F0860FDF7B6FF054606E05F
:1037E000FDF7B2FF401B022801D90320CDE51148A7
:1037F0000068C0F340600028F2D019E00D4800686E
:1038000020F080700B490860FDF79EFF054606E03A
:10381000FDF79AFF401B022801D90320B5E50548B2
:103820000068C0F340600028F2D101E00120ACE55F
:103830000020AAE50038024070B504460D460CB9D8
:10384000012070BD94F82C0028B9002084F82D00C8
:10385000204600F011F8022084F82C00211D206879
:10386000FDF792F82946D4E90002FDF7E1F80120BE
:1038700084F82C000020E4E710B50446FDF7CAFDEB
:1038800010BD70B504460D4694F82C00022800D1F6
:1038900070BD022084F82C0029462068FDF7AEF8A0
:1038A000012084F82C000020F2E770B504460D4694
:1038B000164694F82C00022800D170BD022084F82E
:1038C0002C00324629462068FDF79FF82868022818
:1038D00003D1052084F82C0002E0012084F82C009C
:1038E0000020EAE7704770B58AB004460D4600260E
:1038F000032084F83400606C032820D0B5F5805F85
:1039000004D1A06B40F08050A0631CE0B5F5006FBF
:1039100007D1204604F0DBF90646A06B3043A063D4
:1039200011E03DB9204604F09DF90646A06B3043F6
:10393000A06308E0A06B40F00060A06303E0A06B10
:1039400040F08050A063A06B40B140F2FF5021686E
:103950008863012084F834000AB070BD6068049068
:10396000A0680590E0680690079560690890A069D6
:10397000099007A807C88DE80700206804A90EC9A8
:1039800003F03CFE012084F834000020E4E7704797
:1039900030B503460022586E020E90090870C2F33B
:1039A0008300487002F003008870586EC0F307422D
:1039B000CA70B3F86400C0F307220A7193F8642058
:1039C0004A71986E020E4FF6FF7000EA0210C8802E
:1039D000986EC0F30742C88840EA1210C88002F00F
:1039E0000F0008726820C05AC0F30722D00948723D
:1039F000C2F380108872C2F34010C872C2F3001084
:103A0000087300204873586C00283ED19007000DC1
:103A100008616820C25C086940EA82000861D86ECB
:103A2000020E086940EA92100861C2F3C2000875EC
:103A300002F007004875D86EC0F307425009887538
:103A4000C2F38200C8759007400F08766C20C05AF8
:103A5000C0F30722087E40EAD21008760869401CAD
:103A600058650C7E586DA41C0125A5406843586517
:103A70000C7A0120A0409865D3E91504640A6043DC
:103A8000D8654FF400741C6630E0586C012821D1D1
:103A90006820C25C9006800A0861D86E020E086930
:103AA00040EA02200861D86EC0F30742086910435B
:103AB00008616C20C05AC0F307220869441C4FF407
:103AC0008060A4FB00045865D8654FF400749C65C1
:103AD0001C660BE040F2FF501C68A063986B40F03E
:103AE00080509863012083F8340030BDC2F3801009
:103AF00001F8190F9006400E48706C20C25C48789F
:103B000040EAD210487002F07F008870186F020EF1
:103B1000D009C870C2F341100871C2F38200487125
:103B20009007000F8871186FC0F30742887940EA48
:103B300092108871C2F34010C8710020087202F020
:103B4000010048727020C05AC0F30722D009887261
:103B5000C2F38010C872C2F340100873C2F30010A1
:103B60004873C2F38100887302F00300C8737020A9
:103B7000C25C500808740120487419390020B4E769
:103B80000246506C0860906C4860D06C8860106D84
:103B9000C860506D0861906D4861D06D8861106E8D
:103BA000C86100207047F8B50446042600250020AF
:103BB00000906946204604F03CF8054615B1A06B1C
:103BC0002843A0630098C0F343263046F8BD0000A8
:103BD00070B5044600252068406BC0F30020002823
:103BE00062D04FF48070216888632068C06B20F435
:103BF0009D702168C863206B00F0080048B3206BFB
:103C000000F0020018B9206B00F0200050B12068CD
:103C100003F0A6FA05462DB1A06B2843A063204609
:103C2000FFF7B5FE40F2FF5021688863012084F859
:103C30003400206B00F0010018B9206B00F0020086
:103C400018B1204600F07EFAB1E0204600F080FA7C
:103C5000ADE0206B00F080000028F5D0206B00F074
:103C6000200050B1206803F07BFA05462DB1A06B0F
:103C70002843A0632046FFF78AFE206B00F0010076
:103C80000028E1D1206B00F002000028DCD1206880
:103C9000C06A20F008002168C862012084F834005E
:103CA000204600F055FA82E02068406BC0F3803077
:103CB00038B14FF4804021688863204604F066F8EC
:103CC00075E02068406BC0F3C03038B14FF400405D
:103CD00021688863204603F099FF68E02068406B04
:103CE00000F03A0008B1012000E0002000285ED07A
:103CF0002068406BC0F3400018B1A06B40F0020098
:103D0000A0632068406BC0F3C00018B1A06B40F006
:103D10000800A0632068406BC0F3401018B1A06B8E
:103D200040F02000A0632068406BC0F3001018B181
:103D3000A06B40F01000A06340F2FF502168886340
:103D40002068C06B20F49D702168C863206B00F070
:103D5000800010B3206C50B11548216C0865206CB0
:103D6000FDF746F918B3206C03F05BFD1FE0E06B34
:103D700050B11048E16B0865E06BFDF739F9B0B15F
:103D8000E06B03F01FFD12E00020A063012084F827
:103D900034002046FFF7A6FD09E0206B00F0080084
:103DA00028B1012084F834002046FFF7F0FD70BDF3
:103DB00023780008C577000810B504460CB9012027
:103DC00010BD94F8340020B900202077204600F080
:103DD00053F8032084F83400204600F008F800204F
:103DE000A0632063012084F834000020E8E730B5A8
:103DF00089B00446002500200390049005900690A9
:103E000007907620089006A807C88DE8070020686C
:103E100003A90EC903F0F2FB2068406820F480700B
:103E200021684860206803F003FC2068406840F483
:103E30008070216848600220FDF7D8FA204603F020
:103E400043FE054645B1012084F83400A06B2843A9
:103E5000A063012009B030BD204603F0B7FD054640
:103E60003DB1012084F83400A06B2843A0630120F9
:103E7000F0E70020EEE7000010B586B004461421FC
:103E800001A8FCF781FA5E49206888427DD100BF15
:103E90005C48006840F400605A49086008460068C1
:103EA00000F40060009000BF00BF00BF5548143808
:103EB000006840F00400534914390860084600685F
:103EC00000F00400009000BF00BF00BF084600687B
:103ED00040F0080008600846006800F00800009004
:103EE00000BF00BF4FF4F850019002200290012063
:103EF0000390032004900C20059001A94248FDF78F
:103F0000FFFA042001900220029001200390032078
:103F100004900C20059001A93C48FDF7F1FA3C48BB
:103F20003C4908604FF000604860002139488160DA
:103F3000C1604FF480610161890041618900816144
:103F40002021C1614FF4403101620421416203210B
:103F500081624FF40001C16289100163FDF780F9AD
:103F600008B1FCF7CCFC00BF2A48E063846300BFC3
:103F700027484830284908604FF0006048604021D9
:103F8000254881600021C16000E036E04FF4806187
:103F9000016189004161890081612021C1614FF483
:103FA0004031016204214162032181624FF400012A
:103FB000C16289100163FDF753F908B1FCF79FFC5A
:103FC00000BF15482064846300BF00220121312016
:103FD000FEF734FA3120FEF721FA002202213B20BD
:103FE000FEF72CFA3B20FEF719FA002202214520A9
:103FF000FEF724FA4520FEF711FA06B010BD0000C6
:10400000002C01404438024000080240000C0240ED
:1040100058640240FCC104205CC204202DE9F04138
:1040200086B00446884616461D460027B8F1000FA4
:1040300007D1A06B40F00060A063012006B0BDE88E
:10404000F08194F83400012876D10020A063711922
:10405000E06D814205D9A06B40F00070A0630120A3
:10406000ECE7032084F8340000202168C86220684F
:10407000C06B40F495702168C8633048E16BC86339
:104080002F48E16BC8640020E16B08656A02930861
:10409000226802F180014246E06BFDF757F9206883
:1040A000C06A40F008002168C862606C012800D036
:1040B00076024FF0FF30009068020190902002904D
:1040C000022003900020049001200590694620689A
:1040D00003F09EF84FF40071206802F0F1FE0746ED
:1040E00057B140F2FF5021688863A06B3843A0634A
:1040F000012084F83400A1E7012D07D98220206334
:104100003146206802F048FF074606E08120206320
:104110003146206802F05DFF07465FB140F2FF5074
:1041200021688863A06B3843A063012084F83400C1
:1041300084E701E0002081E702207FE77F77000825
:10414000197700080121014A117070474D000220C3
:104150000121014A117070474C0002202DE9F04105
:1041600086B00446884616461D460027B8F1000F63
:1041700007D1A06B40F00060A063012006B0BDE84D
:10418000F08194F83400012875D10020A0637119E2
:10419000E06D814205D9A06B40F00070A063012062
:1041A000ECE7032084F8340000202168C86220680E
:1041B000C06B40F01A002168C8633048216CC863A6
:1041C0002F48216CC8640020216C0865606C0128B0
:1041D00000D076024FF40071206802F071FE0746AD
:1041E00057B140F2FF5021688863A06B3843A06349
:1041F000012084F83400C1E7012D07D9A0202063F5
:104200003146206802F0CAFF074606E0902020638E
:104210003146206802F0DFFF074657B140F2FF50F9
:1042200021688863A06B3843A063012084F83400C0
:10423000A4E72068C06A40F008002168C8626902EB
:104240008B08216801F180024146206CFDF77EF861
:104250004FF0FF3000906802019090200290002003
:1042600003900490012005906946206802F0D0FF79
:10427000002083E7FFE7022080E7000011780008B4
:1042800019770008042808D14FF0E021096941F0AE
:1042900004014FF0E022116107E04FF0E0210969CD
:1042A00021F004014FF0E0221161704770B504461F
:1042B0002546681EB0F1807F01D301200FE0681E03
:1042C0004FF0E02148610F214FF0FF3008F07CF9FA
:1042D00000204FF0E021886107200861002070BDB8
:1042E000704770477047000030B502460B4600BF6C
:1042F00092F83C00012801D1022030BD012082F853
:104300003C0000BF022082F83D0010684168106840
:104310008468114D1068A84203D0104D1068A8425F
:1043200003D121F470015868014321F0700118682D
:10433000014324F0800498680443106841601068C9
:104340008460012082F83D0000BF002082F83C001C
:1043500000BF00BFD1E700000000014000040140A1
:1043600010B504460CB9012010BD94F83D0028B9E1
:10437000002084F83C00204600F00CF8022084F86D
:104380003D00211D206803F09DFE012084F83D00C2
:104390000020E9E738B504460D492068884215D168
:1043A00000BF0C48006840F002000A490860084657
:1043B000006800F00200009000BF00BF002211461C
:1043C0001D20FEF73BF81D20FEF728F838BD000041
:1043D000000400404038024001460868C06840F0D0
:1043E00001000B68D86008688068084B00EA030287
:1043F000062A08D0B2F5803F05D00868006840F072
:1044000001000B68186000207047000007000100E1
:104410002DE9F04104460D4600BF94F83C00012808
:1044200002D10220BDE8F081012084F83C0000BFE9
:10443000022084F83D00206886683748064026F44C
:104440007F46206886602868502833D00CDC2028FE
:1044500050D004DC00284BD0102851D149E030283E
:1044600049D040284CD139E060282DD0702807D0A1
:10447000B0F5805F03D0B0F5005F41D10DE040E0C2
:10448000D5E902136A68206803F088FE2068866810
:1044900046F077062068866033E0D5E902136A6843
:1044A000206803F07BFE2068806840F4804021682B
:1044B000886026E0EA686968206803F083FE50217E
:1044C000206803F076FE1CE0EA686968206803F063
:1044D0008CFE6021206803F06CFE12E0EA686968D7
:1044E000206803F06FFE4021206803F062FE08E0C0
:1044F00000BF00BF00BF2968206803F05AFE00E03B
:1045000000BF00BF012084F83D0000BF002084F8F8
:104510003C0000BF00BF85E788FFFEFF704710B575
:10452000044620680069C0F34000D8B12068C06824
:10453000C0F34000B0B16FF00200216808610120B3
:1045400020772068806900F0030018B12046FFF74B
:10455000E5FF05E0204600F0BEF8204600F0BCF87C
:104560000020207720680069C0F38000D8B120685F
:10457000C068C0F38000B0B16FF00400216808612A
:10458000022020772068806900F4407018B120462E
:10459000FFF7C4FF05E0204600F09DF8204600F03C
:1045A0009BF80020207720680069C0F3C000D8B1D4
:1045B0002068C068C0F3C000B0B16FF00800216887
:1045C0000861042020772068C06900F0030018B15A
:1045D0002046FFF7A3FF05E0204600F07CF82046C8
:1045E00000F07AF80020207720680069C0F30010FE
:1045F000D8B12068C068C0F30010B0B16FF01000EF
:1046000021680861082020772068C06900F44070A4
:1046100018B12046FFF782FF05E0204600F05BF866
:10462000204600F059F8002020772068006900F04B
:10463000010058B12068C06800F0010030B16FF08F
:10464000010021680861204600F048F820680069F0
:10465000C0F3C01058B12068C068C0F3C01030B1BA
:104660006FF08000216808612046FFF73AFE20685D
:104670000069C0F3002058B12068C068C0F3C010C2
:1046800030B16FF48070216808612046FFF728FE82
:1046900020680069C0F3801058B12068C068C0F37A
:1046A000801030B16FF0400021680861204600F0B2
:1046B00029F820680069C0F3401058B12068C0682C
:1046C000C0F3401030B16FF020002168086120462F
:1046D000FFF708FE10BD70477047000010B5044694
:1046E00006492068884207D101210548FDF71CF8DA
:1046F00002210348FDF718F810BD00000004004037
:1047000000040240704770472DE9F04704462068D6
:10471000C569206806682068876805F00F08B8F149
:10472000000F0CD105F0200048B106F0200030B198
:10473000206E10B12046216E8847BDE8F087B8F1A1
:10474000000F71D007F0010018B906F4907000282E
:1047500079D005F0010048B106F4807030B1012035
:1047600021680862E06F40F00100E06705F0020098
:1047700048B107F0010030B1022021680862E06F03
:1047800040F00400E06705F0040048B107F00100C4
:1047900030B1042021680862E06F40F00200E06759
:1047A00005F0080060B106F0200010B907F0010024
:1047B00030B1082021680862E06F40F00800E0672F
:1047C000E06F80B305F0200038B106F0200020B182
:1047D000206E10B12046216E8847D4F87C90206866
:1047E000806800F04000402802D009F0080020B3A3
:1047F000204603F0BAFD2068806800F040004028A1
:1048000017D12068806820F0400021688860E06E41
:1048100058B11948E16E0865E06EFCF7E9FB10B18C
:10482000E06E016D88470DE00DE02046FFF76BFF5D
:1048300008E02046FFF767FF04E02046FFF763FF2C
:104840000020E06779E705F0800040B106F08000C5
:1048500028B1606E10B12046616E88476DE705F0A3
:10486000400030B106F0400018B1204603F08EFD44
:1048700063E700BF61E700005383000810B50446FA
:104880000CB9012010BDA06900B100E000BF606F4D
:1048900028B9002084F87000204600F029F8242070
:1048A00060672068006820F00100216808602046E9
:1048B00003F0E6FD012800D1E4E7606A10B120466C
:1048C00003F0A7FC2068406820F49040216848600D
:1048D0002068806820F02A002168886020680068CD
:1048E00040F0010021680860204603F00EFDC9E792
:1048F00010B586B00446142101A8FBF745FD3B49DD
:104900002068884270D100BF3948006840F010002C
:10491000374908600846006800F01000009000BFAA
:1049200000BF00BF32481438006840F00100304931
:10493000143908600846006800F00100009000BFCC
:1049400000BF4FF4C060019002200290002003904D
:10495000032004900720059001A92648FCF7D0FD0C
:104960002548264908604FF0006048600021234830
:104970008160C1604FF4806101610021416181610A
:10498000C16101624162FCF76BFC08B1FBF7B7FF44
:1049900000BF1A48E066846300BF174878301849A2
:1049A00008604FF000604860402115488160002198
:1049B000C1604FF480610161002141618161C16189
:1049C00001624162FCF74CFC08B1FBF798FF00BFA5
:1049D0000B48A066846300BF002211462520FDF726
:1049E0002DFD2520FDF71AFD06B010BD0010014079
:1049F00044380240000002404064024064C4042085
:104A0000C4C4042010B50346986F202865D101B1B5
:104A10000AB9012010BD00BF93F87000012801D130
:104A20000220F7E7012083F8700000BF5965A3F862
:104A30005820A3F85A200020186600BF9868B0F5E7
:104A4000805F0AD1186920B940F2FF10A3F85C001A
:104A500020E0FF20A3F85C001CE0986848B91869C2
:104A600018B9FF20A3F85C0014E07F20A3F85C00D5
:104A700010E09868B0F1805F09D1186918B97F20FB
:104A8000A3F85C0006E03F20A3F85C0002E00020F1
:104A9000A3F85C0000BF0020D86722209867186840
:104AA000806840F001001C68A0609868B0F5805FE5
:104AB00004D1186910B90A48186601E00948186657
:104AC00000BF002083F8700000BF1868006840F441
:104AD00090701C68206000209CE702209AE700008C
:104AE000AD830008198400081D4A0168914236D13F
:104AF0001C49098801F4004189BB1A49098801F45D
:104B0000804171B1184909780A2903D00021154A5A
:104B1000118024E01349098841F40041114A1180B1
:104B20001DE0114909780D2906D10E49098841F483
:104B300080410C4A118012E00B490978094A128819
:104B4000C2F30D02094B995406490988491C054ACC
:104B5000118011460988632901DD00211180704709
:104B600000100140500002204E00022080C30420AB
:104B70002DE9F84F04460E4617469946606F2028E7
:104B80005CD106B117B90120BDE8F88F00BF94F8D9
:104B90007000012801D10220F6E7012084F870009E
:104BA00000BF0020E06721206067FCF7CDFD824652
:104BB000A4F85070A4F85270A068B0F5805F04D1DA
:104BC000206910B90025B04602E035464FF00008D4
:104BD0001DE05346002280212046CDF8009003F0CE
:104BE00021FE08B10320CFE745B9B8F80000C0F3B3
:104BF00008002168886208F1020803E0287821682B
:104C000088626D1CB4F85200401EA4F85200B4F83B
:104C100052000028DDD15346002240212046CDF825
:104C2000009003F0FFFD08B10320ADE7202060678E
:104C300000BF002084F8700000BFA5E70220A3E7B2
:104C400070472DE9F04705468846D5F800904E4656
:104C5000444606F5A06000EB4410806800F00400B4
:104C6000042812D1042106F5A06000EB44108160F5
:104C700006F5A06000EB4410C06840F0020106F5A4
:104C8000A06000EB4410C1606DE006F5A06000EB91
:104C90004410806800F02000202806D1202106F56D
:104CA000A06000EB441081605DE006F5A06000EBC1
:104CB0004410806800F00800082825D106F5A0609F
:104CC00000EB4410C06840F0020106F5A06000EB64
:104CD0004410C160052104EB840205F1380000EBAB
:104CE000C20080F82510102106F5A06000EB4410EA
:104CF0008160082106F5A06000EB44108160E1B2FC
:104D0000286806F05FFE2EE006F5A06000EB441078
:104D1000806800F48060B0F5806F24D106F5A06053
:104D200000EB4410C06840F0020106F5A06000EB03
:104D30004410C160E1B2286806F044FE102106F577
:104D4000A06000EB44108160082104EB840205F1AF
:104D5000380000EBC20080F82510C90106F5A060FC
:104D600000EB4410816006F5A06000EB4410806801
:104D700000F40070B0F5007F17D106F5A06000EBDD
:104D80004410C06840F0020106F5A06000EB44103A
:104D9000C160E1B2286806F015FE4FF4007106F517
:104DA000A06000EB4410816001E206F5A06000EB1A
:104DB0004410806800F0010000287ED02869A8B166
:104DC00004EB840105F1380000EBC100016906F530
:104DD000A06000EB44100069C0F31200091A04EB54
:104DE000840205F1380000EBC2004161012104EBAF
:104DF000840205F1380000EBC20080F82510002184
:104E000004EB840205F1380000EBC20001620121CD
:104E100006F5A06000EB4410816004EB840105F10D
:104E2000380000EBC100C07940B104EB840105F10A
:104E3000380000EBC100C079022816D106F5A06049
:104E400000EB4410C06840F0020106F5A06000EBE2
:104E50004410C160E1B2286806F0B4FD102106F5E7
:104E6000A06000EB441081602BE004EB840105F1AD
:104E7000380000EBC100C079032822D106F5A060FC
:104E800000EB4410006840F0005106F5A06000EB14
:104E900044100160012104EB840205F1380000EBAD
:104EA000C20080F8241004EB840305F1380000EB05
:104EB000C30090F82420E1B200E013E02846FCF79C
:104EC000FFFC04EB840105F1380000EBC100007E1B
:104ED00080F0010104EB840205F1380000EBC20010
:104EE000017664E106F5A06000EB4410806800F0F4
:104EF0000200022871D106F5A06000EB4410C068E2
:104F000020F0020106F5A06000EB4410C16004EB44
:104F1000840105F1380000EBC10090F8250001285C
:104F200009D1012104EB840205F1380000EBC20035
:104F300080F824108BE004EB840105F1380000EBCD
:104F4000C10090F82500052809D1052104EB840251
:104F500005F1380000EBC20080F8241077E004EB84
:104F6000840105F1380000EBC10090F82500062807
:104F700009D004EB840105F1380000EBC10090F882
:104F80002500082842D104EB840105F1380000EB2C
:104F9000C100006A401C04EB840205F1380101EBFA
:104FA000C201086204EB840105F1380000EBC10086
:104FB000006A032812D9002104EB840205F13800AD
:104FC00000EBC2000162042104EB840205F1380009
:104FD00000EBC20080F8241009E04BE0022104EB52
:104FE000840205F1380000EBC20080F8241006F5B9
:104FF000A06000EB4410076827F0804747F00047A7
:1050000006F5A06000EB4410076020E004EB84018B
:1050100005F1380000EBC10090F82500032816D1F7
:10502000022104EB840205F1380000EBC20080F895
:10503000241006F5A06000EB4410076827F08047B5
:1050400047F0004706F5A06000EB4410076002211E
:1050500006F5A06000EB4410816004EB840305F1C9
:10506000380000EBC30090F82420E1B22846FCF79A
:1050700027FC9CE006F5A06000EB4410806800F07F
:10508000800080282ED106F5A06000EB4410C06897
:1050900040F0020106F5A06000EB4410C16004EB93
:1050A000840105F1380000EBC100006A401C04EBEC
:1050B000840205F1380101EBC2010862062104EB0C
:1050C000840205F1380000EBC20080F82510E1B23F
:1050D000286806F077FC802106F5A06000EB4410FC
:1050E000816064E006F5A06000EB4410806800F089
:1050F000100010285BD104EB840105F1380000EBAF
:10510000C100C079032818D1002104EB840205F105
:10511000380000EBC200016206F5A06000EB44100D
:10512000C06840F0020106F5A06000EB4410C160C9
:10513000E1B2286806F046FC33E004EB840105F197
:10514000380000EBC100C07940B104EB840105F1E7
:10515000380000EBC100C079022822D1002104EB05
:10516000840205F1380000EBC20001622869C0B971
:10517000032104EB840205F1380000EBC20080F843
:10518000251006F5A06000EB4410C06840F0020155
:1051900006F5A06000EB4410C160E1B2286806F09B
:1051A00011FC102106F5A06000EB44108160BDE801
:1051B000F0872DE9F04705460F46D5F800904E469A
:1051C0003C4606F5A06000EB4410806800F0040047
:1051D000042812D1042106F5A06000EB4410816080
:1051E00006F5A06000EB4410C06840F0020106F52F
:1051F000A06000EB4410C1607EE206F5A06000EB09
:105200004410806800F02000202830D1202106F5CD
:10521000A06000EB4410816004EB840105F13800CC
:1052200000EBC10040790128E6D1002104EB8402A3
:1052300005F1380000EBC2004171022104EB840249
:1052400005F1380000EBC20080F8241006F5A060DC
:1052500000EB4410C06840F0020106F5A06000EBCE
:105260004410C160E1B2286806F0ACFB44E206F5E8
:10527000A06000EB4410806800F0400040282FD16F
:10528000042104EB840205F1380000EBC20080F831
:105290002510012104EB840205F1380000EBC20067
:1052A0004171002104EB840205F1380000EBC200DB
:1052B000016206F5A06000EB4410C06840F00201F6
:1052C00006F5A06000EB4410C160E1B2286806F06A
:1052D00079FB402106F5A06000EB441081600BE2F1
:1052E00006F5A06000EB4410806800F40070B0F593
:1052F000007F17D106F5A06000EB4410C06840F0B5
:10530000020106F5A06000EB4410C160E1B228681C
:1053100006F058FB4FF4007106F5A06000EB441056
:105320008160E9E106F5A06000EB4410806800F0C0
:10533000010030B3002104EB840205F1380000EBDA
:10534000C200016206F5A06000EB4410C06840F0A6
:10535000020106F5A06000EB4410C160E1B22868CC
:1053600006F030FB012106F5A06000EB44108160DF
:1053700004EB840205F1380000EBC20080F8251030
:10538000BAE106F5A06000EB4410806800F0080068
:1053900008281FD1082106F5A06000EB44108160A9
:1053A00006F5A06000EB4410C06840F0020106F56D
:1053B000A06000EB4410C160E1B2286806F002FB77
:1053C000052104EB840205F1380000EBC20080F8EF
:1053D000251091E106F5A06000EB4410806800F014
:1053E000100010283FD1002104EB840205F13800A1
:1053F00000EBC2000162032104EB840205F13800D6
:1054000000EBC20080F8251004EB840105F13800A0
:1054100000EBC100407978B904EB840105F1380054
:1054200000EBC100007938B9012104EB840205F1D9
:10543000380000EBC200417106F5A06000EB44109B
:10544000C06840F0020106F5A06000EB4410C160A6
:10545000E1B2286806F0B6FA102106F5A06000EB6C
:105460004410816048E106F5A06000EB44108068BC
:1054700000F0800080281FD106F5A06000EB4410EA
:10548000C06840F0020106F5A06000EB4410C16066
:10549000E1B2286806F096FA062104EB840205F1D1
:1054A000380000EBC20080F82510802106F5A060CE
:1054B00000EB441081601FE106F5A06000EB441092
:1054C000806800F48060B0F5806F25D106F5A0609B
:1054D00000EB4410C06840F0020106F5A06000EB4C
:1054E0004410C160E1B2286806F06CFA102106F59C
:1054F000A06000EB44108160890106F5A06000EB1C
:1055000044108160082104EB840205F1380000EBAF
:10551000C20080F82510EFE006F5A06000EB441013
:10552000806800F0020002289CD106F5A06000EB24
:105530004410C06820F0020106F5A06000EB4410A2
:10554000C16004EB840105F1380000EBC10090F864
:10555000250001282BD1012104EB840205F138003C
:1055600000EBC20080F8241004EB840105F1380040
:1055700000EBC100C079022808D004EB840105F1DA
:10558000380000EBC100C07903280FD104EB84017F
:1055900005F1380000EBC100407E80F0010104EB12
:1055A000840205F1380000EBC200417692E004EB82
:1055B000840105F1380000EBC10090F825000328B4
:1055C00009D1022104EB840205F1380000EBC2008E
:1055D00080F824107EE004EB840105F1380000EB34
:1055E000C10090F82500042809D1022104EB8402AF
:1055F00005F1380000EBC20080F824106AE004EBEB
:10560000840105F1380000EBC10090F82500052861
:1056100009D1052104EB840205F1380000EBC2003A
:1056200080F8241056E004EB840105F1380000EB0B
:10563000C10090F82500062809D004EB840105F18B
:10564000380000EBC10090F82500082842D104EB97
:10565000840105F1380000EBC100006A401C04EB36
:10566000840205F1380101EBC201086204EB8401F8
:1056700005F1380000EBC100006A032811D90021B0
:1056800004EB840205F1380000EBC2000162042142
:1056900004EB840205F1380000EBC20080F824100E
:1056A00008E0022104EB840205F1380000EBC2009F
:1056B00080F8241006F5A06000EB4410D0F80080BC
:1056C00028F0804848F0004806F5A06000EB441040
:1056D000C0F80080022106F5A06000EB4410816054
:1056E00004EB840305F1380000EBC30090F824209C
:1056F000E1B22846FCF7E4F8BDE8F0877CB5044643
:1057000026683546D5F840040190D5F8400400904D
:10571000009820F02E000090019800F0020002286E
:1057200010D1019800F0010040B12068806920F09C
:105730000050216888612046FCF70CF8009840F082
:1057400002000090019800F00800082839D1009864
:1057500040F008000090019800F00400042821D1D6
:10576000A06902280FD1019800F4C020B0F5802F65
:1057700004D10221206806F039FC0CE001212068E8
:1057800006F034FC07E0E068032804D14EF66021FF
:1057900040F2044041512046FCF7F3FA2046FBF763
:1057A000D9FF0EE02046FCF7E5FAD5F8400420F0DA
:1057B0002E00C5F840042068806940F00050216840
:1057C0008861019800F02000202803D1009840F063
:1057D000200000900098C5F840047CBD2DE9F05FE2
:1057E0000546D5F800A057462868D0F8208008F074
:1057F0000F04C8F3434BC8F30A16BBF1020F09D0DC
:10580000BBF1030F66D0BBF1050F61D0BBF1070FF1
:105810005FD160E0002E5AD004EB840105F138001E
:1058200000EBC100C068E8B3B2B204EB840C05F130
:10583000380303EBCC03D968286806F0FEFB04EBC1
:10584000840105F1380000EBC100C068811904EB48
:10585000840205F1380000EBC200C16004EB840152
:1058600005F1380000EBC1004069811904EB8402A6
:1058700005F1380000EBC200416107F5A06000EBC4
:10588000441000691649084060B107F5A06000EBBC
:105890004410D0F8009029F0804949F0004907F5FC
:1058A000A06000E013E000EB4410C0F8009004EBAF
:1058B000840105F1380000EBC100007E80F0010199
:1058C00004EB840205F1380000EBC200017603E02E
:1058D00002E000BF00BF00BF00BFBDE8F09F0000B6
:1058E0000000F81F00BFFEE710B50022102112488B
:1058F000FBF723FF1048006820F440600E49086061
:105900000846006840F480600860002220210A48B0
:10591000FBF713FF022007F011FC012210210648BB
:10592000FBF70BFF022007F009FC002210210248C0
:10593000FBF703FF10BD0000001C024000B587B05C
:1059400000BF1248006840F0800010490860084617
:10595000006800F08000019000BF00BF302002907E
:105960000120039004900220059002A90848FBF74B
:10597000C7FD012220210648FBF7DFFE012210218E
:105980000348FBF7DAFE07B000BD000030380240E4
:10599000001C024010B5002210211248FBF7CDFE7A
:1059A0001048006820F440600E490860084600680E
:1059B00040F480600860012220210A48FBF7BDFE08
:1059C000022007F0BBFB012210210648FBF7B5FEC1
:1059D000022007F0B3FB002210210248FBF7ADFEC6
:1059E00010BD0000001C024070B505460024184898
:1059F000006820F4406016490860084600680860A6
:105A000000261AE0002210211148FBF796FE022022
:105A100007F094FB012210210D48FBF78EFE600673
:105A2000040E20210A48FBF777FE08B1601CC4B2BF
:105A3000012007F083FB701CC6B2082EE2DB15B90B
:105A4000FFF7A8FF01E0FFF74FFF204670BD000001
:105A5000001C024070B504461C48006820F44060F9
:105A60001A4908600846006840F480600860002217
:105A700010211648FBF761FE002523E0E00928B15C
:105A8000012220211148FBF758FE04E000222021CA
:105A90000E48FBF752FE6006040E022007F04EFB94
:105AA000012210210948FBF748FE022007F046FBBF
:105AB000002210210548FBF740FE022007F03EFBC4
:105AC000681CC5B2082DD9DB70BD0000001C024067
:105AD00010B51348006820F440601149086008467A
