:020000040800F2
:1000000018D104200D020008715F0008A54F0008F8
:100010002D5F0008690300084FB4000800000000CD
:100020000000000000000000000000003F74000815
:1000300009050008000000005D600008CF75000899
:1000400027020008270200082702000827020008EC
:1000500027020008270200082702000827020008DC
:1000600027020008270200082702000827020008CC
:1000700027020008270200082702000827020008BC
:1000800027020008270200082702000827020008AC
:10009000270200082702000827020008270200089C
:1000A000270200082702000827020008270200088C
:1000B00027020008317700082702000827020008FD
:1000C000270200082702000827020008270200086C
:1000D00027020008097F00082702000827020008FD
:1000E000270200082702000827020008270200084C
:1000F000270200082702000827020008270200083C
:1001000027020008C564000827020008270200082B
:10011000270200082702000827020008270200081B
:1001200027020008270200086D0300087D0300086D
:1001300027020008270200082702000827020008FB
:10014000270200082702000827020008755F000840
:10015000270200088D0300089D03000827020008FD
:1001600027020008270200082702000827020008CB
:1001700027020008270200082702000800000000EC
:1001800027020008270200082702000827020008AB
:10019000270200082702000827020008270200089B
:1001A000270200082702000827020008270200088B
:1001B000270200082702000827020008270200087B
:1001C000270200082702000800000000270200089C
:1001D000270200082702000827020008270200085B
:1001E000270200082702000827020008270200084B
:1001F0002702000827020008DFF80CD000F0A2F860
:1002000000480047A5E4000818D1042006488047AC
:1002100006480047FEE7FEE7FEE7FEE7FEE7FEE7EB
:10022000FEE7FEE7FEE7FEE7CD760008F9010008ED
:100230002DE9F05F0546002092469B46884606461B
:10024000814640241BE0284641464746224600F0AE
:1002500068F853465A46C01A914110D311461846C1
:10026000224600F04FF82D1A67EB01084F46224650
:100270000120002100F046F817EB00094E41201E36
:10028000A4F10104DFDC484631462A464346BDE876
:10029000F09F40EA01039B0703D009E008C9121F41
:1002A00008C0042AFAD203E011F8013B00F8013B30
:1002B000521EF9D27047D2B201E000F8012B491E5C
:1002C000FBD270470022F6E710B513460A460446F3
:1002D0001946FFF7F0FF204610BD421E12F8013FFD
:1002E000002BFBD111F8013B02F8013B002BF9D1A7
:1002F0007047034611F8012B00F8012B002AF9D1B1
:1003000018467047202A04DB203A00FA02F1002048
:1003100070479140C2F1200320FA03F31943904043
:100320007047202A04DB203A21FA02F000217047AE
:1003300021FA02F3D040C2F120029140084319464D
:1003400070470000064C074D06E0E06840F00103EE
:1003500094E8070098471034AC42F6D3FFF750FFFB
:10036000FC3F01081C40010800BFFEE710B5024831
:1003700000F042FA10BD0000D8C3042010B50248B6
:1003800000F03AFA10BD000070C1042010B5024818
:1003900000F032FA10BD0000D0C1042010B50248B0
:1003A00000F02AFA10BD000038C404200146087885
:1003B00010381823B0FBF3F20848805CC865032AA4
:1003C00005D908686FF30900001D886503E0086817
:1003D0006FF309008865886D70470000E03B0108F5
:1003E000014600208A6A8B69CBB932B1012A0DD04F
:1003F000022A03D0032A10D10EE000BFCB6A03F01B
:100400008073B3F1807F00D1012007E0CB6AB3F1A4
:10041000C07F00D1012001E000E000BF34E08B6923
:10042000B3F5005F1AD132B1012A07D0022A03D0F6
:10043000032A11D10AE000BF01200EE0CB6A03F0CD
:100440008073B3F1807F00D1012006E0CB6AB3F165
:10045000C07F00D1012000E000BF15E032B1012AC9
:1004600005D0022A04D0032A0CD103E000BF00BF4C
:10047000012008E0CB6A03F08073B3F1807F00D1E4
:10048000012000E000BF00BF704730B50468246859
:1004900024F4802405682C60046863608468402C20
:1004A00004D10468A2600468E16003E00468A1600C
:1004B0000468E26030BD0146002205E0002301F53A
:1004C000207040F82230521C0F2AF7D3002204E09B
:1004D000002301F11C008354521CB2F5007FF7D3B6
:1004E000002008704870012088700020C1F8BC020C
:1004F00001230B7640238B7100234B7681F81C324D
:10050000012381F81D3270477047704730B50346AC
:1005100014460022DA680022D1E9000540EA0520ED
:100520000D8940EA05400D7B40EA05600243DA6030
:10053000002030BD30B50346144600229A680022E0
:10054000D1E9000540EA05200D8940EA05400D7B10
:1005500040EA056002439A60002030BD10B50246B3
:10056000002313680A480340486840F008008C687C
:100570002043CC6820430C6920434C6940EA442066
:100580008C6940EA443003431360002010BD000032
:100590008101F0FF30B502460023002408680128DD
:1005A00016D013686FF30E03D1E901052843CD6817
:1005B00028430D6928434D6928438D692843CD6937
:1005C00028430D6A28434D6A28430343136019E00A
:1005D000136823F4F843D1E9070528434D6A2843FB
:1005E000034354686FF30E04D1E901052843CD6835
:1005F00028430D6928434D6928438D6928430443E6
:1006000013605460002030BD0246506940EA41004A
:1006100050610020704718B5034600200090D1E9D2
:10062000000420438C68641E40EA4410CC6840EA11
:100630004420009000981861002018BD70B5034652
:10064000154600220024012D1FD09A6802F0704246
:100650000868401E4E68761E40EA06168868401EEE
:1006600046EA0026C868401E46EA0036088A401E50
:1006700046EA0046888A401E46EA0056087E401E2A
:1006800046EA006002439A6022E09A6811480240FC
:10069000C868401E0603888A401E46EA005002438E
:1006A000DC6804F070440868401E4E68761E40EA1C
:1006B00006168868401E46EA0026088A401E46EA5A
:1006C0000046087E401E46EA006004439A60DC60F3
:1006D000002070BDFF0F0FFF2DE9F05F82468846B6
:1006E00014462046E21704EB5272D2102146E3175B
:1006F00004EB5373DB10A4EBC3030BB1012300E045
:1007000000231A44624302F0FF099AF800600AF1DC
:10071000010082460578812E05DB402D03DBFF2D8D
:1007200001D0FF2E0DD14FF0000B06E0002008F89D
:10073000010B0BF1010000F0FF0BCB45F6DBBDE830
:10074000F09F7F2D03DAA5F14000C5B202E0A5F1CC
:100750004100C5B2A6F18100C6B2BE2010FB065012
:1007600000FB09F70C2C06D0102C0DD0182C14D03F
:10077000202C24D11AE01348D0F80900C1194A46A8
:1007800040460AF0D9FE1AE00E48D0F81100C1190F
:100790004A4640460AF0D0FE11E00A48D0F8190057
:1007A000C1194A4640460AF0C7FE08E00548D0F89D
:1007B0002100C1194A4640460AF0BEFE00BF00BFF4
:1007C00000BFBCE7ECC80420014691F835000228C0
:1007D00003D08020486501207047052081F835004E
:1007E0000868006820F001000A6810600020F3E744
:1007F0000146486D70470000F8B50446002000909F
:100800008C4800684FF41651B0FBF1F7A56D2E68C7
:1008100094F85C1008208840304098B12068006847
:1008200000F0040070B12068006820F00400216826
:10083000086094F85C1008208840A860606D40F063
:100840000100606594F85C1001208840304068B178
:100850002068406900F0800040B194F85C100120ED
:100860008840A860606D40F00200606594F85C10FC
:1008700004208840304068B12068006800F0020021
:1008800040B194F85C1004208840A860606D40F08E
:100890000400606594F85C1010208840304078B304
:1008A0002068006800F0080050B394F85C10102035
:1008B0008840A8602068006800F4802080B120682B
:1008C000006800F4002028B9206CC8B12046216CD3
:1008D000884715E0A06C98B12046A16C88470FE0CE
:1008E0002068006800F4807028B92068006820F053
:1008F000080021680860206C10B12046216C8847F0
:1009000094F85C10202088403040002865D0206892
:10091000006800F0100000285FD094F85C102020E0
:100920008840A86094F83500052828D12068006820
:1009300020F01600216808602068406920F08000DF
:1009400021684861206C08B9A06C28B12068006853
:1009500020F008002168086094F85C103F2088406F
:10096000A86000BF002084F8340000BF012084F894
:100970003500206D10B12046216D8847F8BD2068F4
:10098000006800F4802080B12068006800F4002036
:1009900028B9606C10B12046616C88471DE0E06B9F
:1009A000D8B12046E16B884717E02068006800F462
:1009B000807068B92068006820F010002168086025
:1009C00000BF002084F8340000BF012084F8350007
:1009D000E06B10B12046E16B8847606D38B3606D05
:1009E00000F00100F0B1052084F8350020680068AF
:1009F00020F001002168086000BF0098401C0090B2
:100A0000B84200D905E02068006800F00100002825
:100A1000F3D100BF00BF002084F8340000BF0120E4
:100A200084F83500E06C10B12046E16C884700BFC7
:100A3000A4E70000600002202DE9F04104460025F3
:100A400000F06EFA074614B90120BDE8F081606A33
:100A500000B100BF00BF002084F8340000BF0220B6
:100A600084F835002068006820F0010021680860E3
:100A70000AE000F055FAC01B052805D92020606562
:100A8000032084F83500E0E72068006800F00100EA
:100A90000028EED12068056821480540D4E901010D
:100AA0000843E16808432169084361690843A16973
:100AB0000843E1690843216A08430543606A042842
:100AC00003D1D4E90B010843054320680560206881
:100AD000456925F00705606A0543606A04280DD161
:100AE000A06A0543E06A48B12046FFF779FC28B1C7
:100AF00040206065012084F83500A6E72068456144
:100B00002046FFF753FC064694F85C103F208840CF
:100B1000B06000206065012084F83500002094E773
:100B20003F8010E02DE9F04704460D4616461F466B
:100B30004FF00008D4F8589000BF94F83400012812
:100B400002D10220BDE8F087012084F8340000BF04
:100B500094F8350001282BD1022084F835000020BC
:100B600060653B46324629462046FFF78EFC94F8E6
:100B70005C103F208840C9F808002068006840F0F9
:100B80001600216808602068406940F080002168F4
:100B90004861206C28B12068006840F00800216896
:100BA00008602068006840F001002168086006E0E5
:100BB00000BF002084F8340000BF4FF00208404618
:100BC000C0E7000070B5044600F0AAF906462546C5
:100BD000681C10B104480078054400BF00F0A0F97B
:100BE000801BA842FAD370BD5C00022000B587B01C
:100BF000142102A8FFF766FB3048006808B107B06F
:100C000000BD01202D49086000BF2D48006840F05C
:100C100001002B4908600846006800F001000190BF
:100C200000BF00BF4FF63F0002900220039000205B
:100C30000490032005900C20069002A9214800F0A2
:100C40004BF80D2002900220039000200490032016
:100C500005900C20069002A91B4800F03DF848F2D0
:100C6000373002900220039000200490032005906A
:100C70000C20069002A9154800F02EF84FF680705F
:100C800002900220039000200490032005900C2085
:100C9000069002A90E4800F01FF84DF673700290FE
:100CA0000220039000200490032005900C20069061
:100CB00002A9084800F010F800BFA0E734000220A5
:100CC0003838024000140240000802400018024078
:100CD00000100240000C0240F8B502460B4600210D
:100CE00000250024002000BFE4E0012606FA01F5FB
:100CF0001E6806EA0504AC4271D15E68022E02D07D
:100D00005E68122E13D1CF0802F1200656F8270094
:100D10004E07F70E0F26BE40B0434F07FF0E1E6969
:100D2000BE403043CF0802F1200646F82700106885
:100D30004F000326BE40B0431E7906F003064F0065
:100D4000BE40304310605E68012E08D05E68022EFF
:100D500005D05E68112E02D05E68122E13D1906805
:100D60004F000326BE40B0434F00DE68BE40304314
:100D70009060506801268E40B0431E79C6F300167D
:100D80008E4030435060D0684F000326BE40B043D1
:100D90004F009E68BE403043D0605E6806F08056CB
:100DA000B6F1805FA8D100BF444E366846F4804655
:100DB000424F3E603E46366806F48046009600BFCD
:100DC00000BF3F4E8F0856F827008E07370F0F26BB
:100DD000BE40B0433B4EB24202D100262EE068E056
:100DE000394EB24201D1012628E0384EB24201D13B
:100DF000022623E0364EB24201D103261EE0354ED4
:100E0000B24201D1042619E0334EB24201D1052687
:100E100014E0324EB24201D106260FE0304EB2420B
:100E200001D107260AE02F4EB24201D1082605E083
:100E30002D4EB24201D1092600E00A268F073F0F4E
:100E4000BE4030431E4E8F0846F82700274E3068BC
:100E5000A0435E6806F48036B6F5803F00D120439B
:100E6000224E3060361D3068A0435E6806F40036BE
:100E7000B6F5003F00D120431C4E361D3060361DB4
:100E80003068A0435E6806F48016B6F5801F00D176
:100E90002043164E08363060361D3068A0435E6829
:100EA00006F40016B6F5001F00D120430F4E0C3695
:100EB0003060491C1029FFF418AFF8BD44380240D7
:100EC00008380140000002400004024000080240CF
:100ED000000C0240001002400014024000180240C2
:100EE000001C02400020024000240240003C01405F
:100EF000024613690B400BB1012000E0002070474F
:100F000042690A408A4202D10A04826100E081619A
:100F100070470AB1816101E00B04836170470000F2
:100F200001480068704700005400022010B50446D4
:100F3000D4F8C00207F018FC10BD10B50446D4F870
:100F4000C00207F029FC10BD10B50446206809F066
:100F500069FE10BD10B50446206809F06AFE10BD98
:100F6000024601EB810302F1380000EBC30090F868
:100F700024007047024601EB810302F1380000EBC8
:100F8000C3004069704770B504460D46002600BF97
:100F900094F8B802012801D1022070BD012084F824
:100FA000B80200BF2946206809F054FE00BF0020A7
:100FB00084F8B80200BF3046EFE72DE9FE4F044643
:100FC0000D4616461F46DDE90D9ADDF8308000BF5C
:100FD00094F8B802012802D10220BDE8FE8F01205A
:100FE00084F8B80200BF002105EB850204F1380047
:100FF00000EBC200417105EB850104F1380000F8F7
:10100000317005EB850100EBC100A0F808A005EBED
:10101000850104F1380000EBC100457005EB850146
:1010200004F1380000EBC10080F8079006F07F0162
:1010300005EB850204F1380000EBC200817006F078
:101040008000802808D1012105EB850204F13800D9
:1010500000EBC200C17007E0002105EB850204F13E
:10106000380000EBC200C17005EB850104F13800C7
:1010700000EBC10080F804808DE800073B46324653
:101080002946206809F0A1FE834600BF002084F8AD
:10109000B80200BF5846A0E770472DE9F05F04464C
:1010A0000D4616461F46DDE90C9BDDE90A8A05EB75
:1010B000850104F1380000EBC100C67005EB850125
:1010C00004F1380000EBC100C771B8F1000F08D17E
:1010D000032105EB850204F1380000EBC2008172A8
:1010E00007E0022105EB850204F1380000EBC200A5
:1010F000817237B1012F74D0022F2BD0032F71D101
:101100005DE0B8F1010F24D11EBBB9F1000F07D18A
:10111000012105EB850204F1380000EBC2004176A5
:1011200005EB850104F1380000EBC100407E40B9B9
:10113000002105EB850204F1380000EBC20081724A
:1011400007E0022105EB850204F1380000EBC20044
:10115000817275E0CEB905EB850104F1380000EB32
:10116000C100407E40B9002105EB850204F1380042
:1011700000EBC200817221E0022105EB850204F13F
:10118000380000EBC200817218E005EB850104F124
:10119000380000EBC100007E40B9002105EB85025C
:1011A00004F1380000EBC200817207E0022105EB78
:1011B000850204F1380000EBC200817240E0DEB924
:1011C00005EB850104F1380000EBC100407E50B909
:1011D000002105EB850204F1380000EBC2008172AA
:1011E00023E023E02BE0022105EB850204F1380027
:1011F00000EBC200817218E005EB850104F13800B4
:1012000000EBC100007E40B9002105EB850204F12E
:10121000380000EBC200817207E0022105EB850275
:1012200004F1380000EBC200817209E0002105EBF7
:10123000850204F1380000EBC200817200E000BFBB
:1012400000BF05EB850104F1380000EBC100C0F8D8
:101250000CA005EB850104F1380000EBC100C0F8DB
:101260001090002105EB850204F1380000EBC2006C
:1012700080F8241005EB850204F1380000EBC20071
:10128000416105EB850104F1380000EBC1004570B8
:10129000002105EB850204F1380000EBC20080F864
:1012A0002510227C05EB850C04F1380303EBCC01FF
:1012B000206809F06DFEBDE8F09F2DE9F04104467D
:1012C000D4F800804646206809F0BFFC012871D19F
:1012D000206809F0F5FF08B9BDE8F081206809F041
:1012E000EFFF00F40010B0F5001F03D14FF4001021
:1012F00021684861206809F0E3FF00F48010B0F530
:10130000801F03D14FF4801021684861206809F0E4
:10131000D7FF00F08060B0F1806F03D14FF08060A4
:1013200021684861206809F0CBFF00F00200022824
:1013300001D121684861206809F0C2FF00F0005027
:10134000B0F1005F10D1D6F8400420F02E00C6F8AE
:1013500040042046FFF7F1FD0121206809F08EFFCF
:101360004FF0005021684861206809F0A9FF00F0A3
:101370008070B0F1807F02D1204603F01FFD20680D
:1013800009F09EFF00F00800082805D1204600F073
:10139000F1F8082021684861206809F091FF00F009
:1013A0000070B0F1007F27D1206809F0E9FD074601
:1013B00000251AE035E005F00F0101208840384093
:1013C00090B106F5A06000EB4510006800F4004005
:1013D000B0F5004F04D1E9B2204602F092FF03E0DD
:1013E000E9B2204603F045FA6D1CA068A842E2D895
:1013F0004FF0007021684861206809F061FFC0F378
:10140000001070B12068806920F0100021688861A8
:10141000204603F043FD2068806940F010002168F9
:10142000886100BF58E710B58AB0044614B901209E
:101430000AB010BD94F8B90228B9002084F8B802A7
:10144000204600F023F8032084F8B902206809F050
:1014500065FB282204F110016846FEF71AFF94E8A4
:101460000F0009F0F9FA0121206809F05DFF282238
:1014700004F110016846FEF70CFF94E80F0009F034
:1014800085FE012084F8B9020020D1E710B588B0AC
:10149000044600BF2B48006840F00100294908605D
:1014A0000846006800F00100029000BF00BF4FF442
:1014B000C050039002200490002005900320069065
:1014C0000A20079003A92048FFF706FC4FF480602C
:1014D000039012200490012005900A20079003A990
:1014E0001948FFF7F9FB0121032004F090FD00BF2C
:1014F0001448001D006840F080001249091D086072
:101500000846006800F08000029000BF00BF0D4850
:101510001430006840F480400A49143108600846DD
:10152000006800F48040019000BF00BF00BF0022AF
:101530000621432000F0E2FA432000F0CFFA08B081
:1015400010BD0000303802400000024010B50446D3
:10155000D4F8C00207F0EAF910BD10B50446D4F87B
:10156000C00207F0E7F910BD10B50446206809F085
:10157000BDFE10BD10B50446D4F8C00207F08DF9C9
:1015800010BD10B5044600BF94F8B802012801D17F
:10159000022010BD012084F8B80200BF206809F0C5
:1015A0000CFB0121206809F0E3FA00BF002084F859
:1015B000B80200BF00BFECE710B5044600BF94F8C6
:1015C000B802012801D1022010BD012084F8B80220
:1015D00000BF206809F0C3FE00BF002084F8B802F5
:1015E00000BF00BFF0E70000034800680349097826
:1015F0000844014908607047540002205C00022042
:1016000010B50A48006840F40070084908600846B0
:10161000006840F480700860032000F0ADFA0020FC
:1016200000F006F800F00CFA002010BD003C02406B
:1016300070B504460E4800784FF47A71B1FBF0F0B3
:101640000C490968B1FBF0F5284602F08FF908B1A2
:10165000012070BD102C07D200222146501E00F040
:101660004DFA0548046001E00120F2E70020F0E7B0
:101670005C000220600002205800022070B5044681
:101680000E46154600BF94F8A000012801D10220A3
:1016900070BD012084F8A00000BF022084F8A100E2
:1016A00005EB850101EBC50204F1380101EB820075
:1016B00034223146FEF7EDFD2A463146204603F03E
:1016C000BFFF01202168486284F8A10000BF00200C
:1016D00084F8A00000BF00BFDAE7000070B5044640
:1016E0000CB9012070BD94F8A10028B9002084F83D
:1016F000A000204600F07EF8022084F8A1002068B7
:10170000806920F0704021688861D4E901010843B4
:10171000E168084321690843216889690843216811
:101720008861206880683249084021688860A08A02
:10173000050420688068A1692943084321688860FE
:101740002068C0682A4908402168C860A08B050449
:101750002068C068216A294308432168C86020685E
:1017600000692349084021680861A08C05042068AD
:101770000069A16A2943084321680861206840691B
:101780001B49084021684861A08D05042068406914
:10179000216B294308432168486194F8350005020C
:1017A00094F8360006042068C06A00F07F40216883
:1017B000C86246EA050094F8341008432168C96AF3
:1017C00008432168C8622068406B40F00600216829
:1017D00048632068806940F001002168886100202A
:1017E000C4F8A400012084F8A10000207AE70000DA
:1017F00000F800F010B586B00446142101A8FEF7E9
:1018000061FD5249206888427ED100BF504800687F
:1018100040F080604E4908600846006800F0806033
:10182000009000BF00BF00BF49481438006840F472
:1018300080704749143908600846006800F48070D9
:10184000009000BF00BF00BF0846006840F02000C5
:1018500008600846006800F02000009000BF00BF4C
:1018600000BF0846006840F00100086008460068B4
:1018700000F00100009000BF00BF00BF08460068F4
:1018800040F0800008600846006800F0800000908A
:1018900000BF00BF00BF0846006840F0400008607D
:1018A0000846006800F04000009000BF00BF40F212
:1018B000F760019002200290002003900320049022
:1018C0000E20059001A92348FFF706FA4FF4806027
:1018D00001900220029000200390032004900E202B
:1018E000059001A91C48FFF7F7F92020019002207C
:1018F000029000200390032004900E20059001A97F
:101900001648FFF7E9F900E01DE04FF47A40019036
:101910000220029000200390032004900E200590E6
:1019200001A90F48FFF7D8F94FF40C60019002208D
:10193000029000200390032004900E20059001A93E
:101940000848FFF7C9F906B010BD00000068014063
:1019500044380240002002400014024000000240CF
:10196000001C0240001802402DE9F04104460E46DA
:101970001746984600BF94F8A000012802D1022023
:10198000BDE8F081012084F8A00000BF022084F8A7
:10199000A10008EB880000EBC80104F1380000EB5F
:1019A00081052E60A86A30446860AF60E86A3844F8
:1019B000E86042462946204603F042FE01202168A5
:1019C000486284F8A10000BF002084F8A00000BF96
:1019D00000BFD5E72DE9F04104460E46174698466C
:1019E00000BF94F8A000012802D10220BDE8F081D8
:1019F000012084F8A00000BF022084F8A10008EBB9
:101A0000880000EBC80104F1380000EB810528686C
:101A100030446860A8683844E860AE62EF624246CD
:101A20002946204603F00CFE01202168486284F814
:101A3000A10000BF002084F8A00000BF00BFD5E7D0
:101A400008B500BF0D48006840F080500B490860A1
:101A50000846006800F08050009000BF00BF00BF43
:101A6000081D006840F48040091D086008460068B1
:101A700000F48040009000BF00BF08BD4038024025
:101A800070B504460E4615460CB9012070BD94F899
:101A9000210028B9002084F82000204600F019F821
:101AA000211D2068FEF75AFD3146D4E90002FEF7F9
:101AB00041FD2946D4E90002FEF728FD20680068B0
:101AC00040F0040021680860012084F82100002013
:101AD000DCE710B50446FFF789F810BD014608465B
:101AE000002809DB00F01F0301229A4043099B00F4
:101AF00003F1E023C3F8002100BF70472DE9F05F38
:101B000080460D461646002709F09EFE07463946D8
:101B10002A46334601F00700C0F1070ABAF1040F64
:101B200002D94FF0040A01E0C0F1070AD14600F1E2
:101B3000040ABAF1070F02D24FF0000A01E0A0F147
:101B4000030AD4464FF0010A0AFA09FAAAF1010A77
:101B50000AEA020A0AFA0CFA4FF0010B0BFA0CFB24
:101B6000ABF1010B0BEA030B4AEA0B04214640469A
:101B700009F072FEBDE8F09F00BF00F00702064BBF
:101B800019684FF6FF031940044B0B4343EA022147
:101B9000014B196000BF70470CED00E00000FA0532
:101BA00038B5002400BF2048006840F080501E492E
:101BB00008600846006800F08050009000BF00BF39
:101BC0001A48006840F4803018490860FFF7A8F907
:101BD000044607E0FFF7A4F9001BB0F57A7F01D9AE
:101BE000032038BD1148406800F48030B0F5803FD4
:101BF000F0D10E48006840F400300C490860FFF74F
:101C00008FF9044607E0FFF78BF9001BB0F57A7FE8
:101C100001D90320E5E70548406800F40030B0F53D
:101C2000003FF0D10020DCE7403802400070004067
:101C30002DE9F84304460D4616460127FFF770F9D3
:101C40008046A86900B100BFE86900B100BF286AFA
:101C500000B100BF00BF94F84000012802D102206B
:101C6000BDE8F883012084F8400000BF94F84100EB
:101C7000012828D100206064022084F841004346F6
:101C8000002220212046009604F02CFB0746DFB9F5
:101C900000222946204604F0E2F9686A78B94346F2
:101CA000012202212046009604F01CFB07465FB982
:101CB00002202168C860012084F8410004E001206E
:101CC00084F8410000E0022700BF002084F84000B3
:101CD00000BF3846C4E70000F8B504460125FFF709
:101CE0001FF906460CB90120F8BD206A402800D033
:101CF00000BF00BF94F84000012801D10220F3E7A3
:101D0000012084F8400000BF94F8410050B9002041
:101D100084F84000204600F04BF841F2883120461C
:101D200000F031F92068006820F4F851A068401EE6
:101D300041EA002021680860A06C3346002220217F
:101D40000090204604F0CEFA054635BB2179E068C4
:101D500040EA0160E1690843216A08432168096893
:101D6000114A1140084321680860208A616941EAEC
:101D70000040A1690843216849680C4A11400843A2
:101D8000216848602068006840F001002168086010
:101D900000206064012084F8410000BF002084F826
:101DA000400000BF28469FE72FFFFF00FEF8E0FF3E
:101DB00010B586B00446142101A8FEF783FA354910
:101DC0002068884263D100BF3348006840F00200B9
:101DD000314908600846006800F00200009000BF2A
:101DE00000BF00BF2C480838006840F020002A4996
:101DF000083908600846006800F02000009000BF25
:101E000000BF00BF0846006840F0020008600846B6
:101E1000006800F00200009000BF00BFC0200190E9
:101E200002200290002003900320049009200590D6
:101E300001A91A48FEF750FF4FF4407001900220AC
:101E4000029000200390032004900A20059001A92D
:101E50001248FEF741FF042001900220029000206A
:101E60000390032004900920059001A90C48FEF777
:101E700033FF4020019002200290002003900320B5
:101E800004900A20059001A90548FEF725FF06B039
:101E900010BD0000001000A03838024000140240BD
:101EA000000402402DE9F84F04460E46174600256F
:101EB000FFF736F880462068D0F81890206800F1C7
:101EC000200A00BF94F84000012802D10220BDE89A
:101ED000F88F012084F8400000BF94F841000128E9
:101EE00049D100206064002E3FD0222084F84100B8
:101EF00020680069401CA06320680069401C606382
:101F000026632068406920F0406040F080602168CE
:101F100048612068C0F8189012E04346012206216B
:101F20002046009704F0DEF9054605B10BE09AF86B
:101F30000010226B501C20631170A06B401EA06328
:101F4000A06B0028E9D100BF5DB943460122022100
:101F50002046009704F0C6F9054615B9022021680D
:101F6000C860012084F8410006E0606C40F0080081
:101F70006064012500E0022500BF002084F84000D5
:101F800000BF2846A3E7816470472DE9F843044663
:101F90000E4617460025FEF7C3FF8046206800F175
:101FA000200900BF94F84000012802D10220BDE8BA
:101FB000F883012084F8400000BF94F84100012814
:101FC00044D100206064002E3AD0122084F84100F1
:101FD00020680069401CE06220680069401CA06223
:101FE00066622068406920F040602168486112E024
:101FF0004346012204212046009704F073F9054668
:1020000005B10BE0616A481C6062087889F800003D
:10201000E06A401EE062E06A0028E9D100BF5DB9D5
:102020004346012202212046009704F05BF9054651
:1020300015B902202168C860012084F8410006E03B
:10204000606C40F008006064012500E0022500BFDC
:10205000002084F8400000BF2846A8E72DE9F84397
:102060000446002600250027A846A946207800F04F
:10207000010088B100BFFE48006820F40000FC4960
:10208000086008460068616B0843F949086000BFB2
:10209000606B08B94FF00108206800F40020B0F52B
:1020A000002F13D1F2488430006820F44010E16B17
:1020B0000843EF4984310860E06BB0F5801F01D11F
:1020C0004FF00108E06B08B94FF00109206800F4F7
:1020D0008010B0F5801F13D1E5488430006820F4EB
:1020E0004000216C0843E24984310860206CB0F55F
:1020F000800F01D14FF00108206C08B94FF00109A1
:10210000206800F08070B0F1807F01D14FF00108AD
:10211000207800F02000202870D100BFD44838304B
:10212000006840F08050D2493831086008460068A5
:1021300000F08050009000BF00BFCE48006840F41F
:102140008070CC490860FEF7EBFE064607E0FEF71C
:10215000E7FE801B642802D90320BDE8F883C54848
:10216000006800F480700028F1D0C1486830006831
:1021700000F4407585B3208E00F44070A8422BD047
:10218000BB486830006820F44075B9486830006882
:1021900040F48030B649683108600846006820F491
:1021A0008030086008460560006800F0010098B1C2
:1021B000FEF7B6FE064608E0FEF7B2FE801B41F2CF
:1021C0008831884201D90320C7E7A94868300068F0
:1021D000C0F340000028EFD000BF208E00F4407014
:1021E000B0F5407F0BD1A248006820F4F810A24A55
:1021F000216B114008439E49086006E010E09C48AE
:10220000006820F4F8109A4908609948683000681E
:10221000218EC1F30B01084395496831086000BF66
:10222000207800F01000102810D100BF90488430B2
:10223000006820F080708E4984310860084600688C
:10224000A16B08438A498431086000BF208800F4EC
:102250008040B0F5804F09D185488830006820F46F
:102260004030616E0843824988310860208800F45C
:102270000040B0F5004F09D17D488830006820F457
:102280004020A16E08437A4988310860206800F434
:102290008030B0F5803F09D175488830006820F45F
:1022A0004010E16E0843724988310860206800F4EC
:1022B0000030B0F5003F09D16D488830006820F447
:1022C0004000216F08436A4988310860207800F097
:1022D0004000402809D166488830006820F003009B
:1022E000616C0843624988310860207800F0800002
:1022F000802809D15E488830006820F00C00A16C6D
:1023000008435B4988310860208800F48070B0F58C
:10231000807F09D156488830006820F03000E16C99
:102320000843534988310860208800F40070B0F5F4
:10233000007F09D14E488830006820F0C000216D30
:1023400008434B4988310860208800F48060B0F56C
:10235000806F09D146488830006820F44070616D74
:102360000843434988310860208800F40060B0F5D4
:10237000006F09D13E488830006820F44060A16DAC
:1023800008433B4988310860208800F48050B0F54C
:10239000805F09D136488830006820F44050E16DF4
:1023A0000843334988310860208800F40050B0F5B4
:1023B000005F09D12E488830006820F44040216E2B
:1023C00008432B4988310860206800F48000B0F58C
:1023D000800F09D126488830006820F08060A16F06
:1023E0000843234988310860206800F40010B0F5E4
:1023F000001F0FD11E488830006820F00060E16F98
:1024000008431B4988310860E06FB0F1006F01D1CB
:102410004FF00109207800F00800082801D14FF0A2
:102420000109206800F48020B0F5802F09D1104800
:102430008830006820F04070616F08430C49883193
:102440000860206800F40000B0F5000F0AD10848C9
:102450008830006820F08050D4F880100843044988
:1024600088310860206800F08060B0F1806F05E07E
:102470000838024000700040FFFCFF0F08D1CC4834
:10248000006820F00050D4F884100843C849086060
:10249000206800F00060B0F1006F0AD1C448001F4E
:1024A000006820F00070D4F888100843C049091F64
:1024B0000860206800F08050B0F1805F0AD1BC480D
:1024C000001F006820F08060D4F88C100843B849E1
:1024D000091F0860B8F1010F03D02068B0F1007F38
:1024E0007ED1B3489038006820F08060B0499039C0
:1024F0000860FEF715FD064606E0FEF711FD801B9D
:10250000642801D9032028E6A94890380068C0F360
:10251000C0600028F1D1207800F00100B8B1606BF4
:10252000A8B9A3480C380068C0F30145A0480C388E
:102530000068C0F303676068800140EA054040EA34
:102540000761207A41EA007099490C3908602068D7
:1025500000F40020B0F5002F03D1E06BB0F5801F30
:1025600009D0206800F48010B0F5801F24D1206CC1
:10257000B0F5800F20D18E480C380068C0F30145BB
:102580008B480C380068C0F302776068800140EA2D
:102590000541207B41EA006040EA077084490C391C
:1025A00008608348001F006820F01F00616A491E10
:1025B00008437F49091F0860206800F08070B0F16F
:1025C000807F17D17A480C380068C0F303657848DB
:1025D0000C380068C0F3027760688101208A00E04F
:1025E00036E041EA004040EA056040EA0770704981
:1025F0000C390860206800F00070B0F1007F0DD148
:1026000060688101208A41EA0041207B41EA006143
:10261000207A41EA007066490C39086064489038B5
:10262000006840F08060624990390860FEF778FCED
:10263000064606E0FEF774FC801B642801D90320DF
:102640008BE55B4890380068C0F3C0600028F1D08B
:10265000B9F1010F7ED156489038006820F08050C3
:10266000534990390860FEF75BFC064606E0FEF72A
:1026700057FC801B642801D903206EE54C48903834
:102680000068C0F340700028F1D1206800F40020F9
:10269000B0F5002F01D1E06B38B1206800F4801054
:1026A000B0F5801F22D1206C00BB4148083800687B
:1026B000C0F301453E4808380068C0F302776069FE
:1026C000800140EA0541207E41EA006040EA07704F
:1026D000374908390860081D006820F4F851A06ADD
:1026E000401E41EA00203249091F0860206800F4BA
:1026F0000010B0F5001F19D1E06FB0F1006F15D1D7
:102700002B4808380068C0F303652948083800687A
:10271000C0F3027760698101208C41EA004040EA01
:10272000056040EA0770224908390860207800F007
:102730000800082820D11E4808380068C0F3036547
:102740001B4808380068C0F301476069800140EA0F
:10275000074000E02AE040EA0561207F41EA00707E
:10276000134908390860081D006820F44030E16A08
:1027700008430F49091F08600D489038006840F071
:1027800080500B4990390860FEF7CAFB064606E008
:10279000FEF7C6FB801B642801D90320DDE4044852
:1027A00090380068C0F340700028F1D00020D4E4D5
:1027B0009038024070B504460D4600260CB9012041
:1027C00070BD5C48006800F00F00A8420ED2594866
:1027D000006820F00F00284356490860084600684A
:1027E00000F00F00A84201D00120E9E7207800F0B6
:1027F000020002281DD1207800F00400042805D131
:102800004D48006840F4E0504B490860207800F0E3
:102810000800082805D14848006840F4604046494F
:1028200008604548006820F0F000A168084342496C
:102830000860207800F0010090B36068012807D19B
:102840003D4808380068C0F34040A0B90120B7E710
:102850006068022807D1384808380068C0F3406033
:1028600048B90120ACE7344808380068C0F340009C
:1028700008B90120A4E73048006820F0030061682F
:1028800008432D490860FEF74BFB064609E0FEF7BA
:1028900047FB801B41F28831884202D903208FE731
:1028A00007E02548006800F00C006168B0EB810F7C
:1028B000EDD12048006800F00F00A8420ED91D4855
:1028C000006820F00F0028431A4908600846006895
:1028D00000F00F00A84201D0012071E7207800F03D
:1028E0000400042807D11448006820F4E050E1688F
:1028F000084311490860207800F00800082808D132
:102900000D48006820F46040216940EAC1000A498E
:10291000086000F03DF808490968C1F30311074A4F
:10292000515CC840064908600020FEF781FE002087
:1029300046E70000003C024008380240E83B01083E
:10294000600002200148006870470000600002201B
:1029500000B5FFF7F7FF04490968C1F38221034A74
:10296000515CC84000BD000008380240F83B010837
:1029700000B5FFF7E7FF04490968C1F34231034A94
:10298000515CC84000BD000008380240F83B010817
:102990002DE9F047002400250026A14625480068BF
:1029A00000F00C0020B1042805D008283AD105E039
:1029B000DFF8849039E0DFF8849036E01D48001F8E
:1029C000006800F03F041B48001F006800F480000E
:1029D00078B11A481749091F0968C1F38811A0FB8B
:1029E00001700146224600233846FDF721FC0546CA
:1029F0000EE011480F49091F0968C1F38811A0FBB7
:102A000001700146224600233846FDF711FC0546B9
:102A10000848001F0068C0F30140401C4600B5FB99
:102A2000F6F902E0DFF8109000BF00BF4846BDE8AD
:102A3000F0870000083802400024F40040787D014F
:102A4000F8B5044600260CB90120F8BD207800F046
:102A50000100002871D0F848006800F00C0004283C
:102A60000DD0F548006800F00C00082813D1F2489A
:102A7000001F006800F48000B0F5800F0BD1EE4815
:102A800008380068C0F34040002869D0606800281A
:102A900066D10120D9E700BF6068B0F5803F08D15A
:102AA000E5480838006840F48030E3490839086098
:102AB0002EE0606868B9E0480838006820F480308B
:102AC000DD49083908600846006820F48020086065
:102AD0001EE06068B0F5A02F0DD1D7480838006817
:102AE00040F48020D449083908600846006840F462
:102AF000803008600CE0D0480838006820F480304E
:102B0000CD49083908600846006820F48020086034
:102B100000BF606890B1FEF703FA054606E0FEF7D5
:102B2000FFF9401B642801D903208EE7C24808380A
:102B30000068C0F340400028F1D011E0FEF7F0F942
:102B4000054606E0FEF7ECF9401B642801D9032096
:102B50007BE7B94808380068C0F340400028F1D14D
:102B6000207800F00200022869D1B348006800F024
:102B70000C0058B1B048006800F00C0008281CD1C7
:102B8000AD48001F006800F48000B0B9AA480838BA
:102B90000068C0F3400020B1E068012801D00120A6
:102BA00053E7A5480838006820F0F800216940EA9A
:102BB000C100A1490839086041E0E06828B39E4897
:102BC0000838006840F001009B4908390860FEF7AA
:102BD000A7F9054606E0FEF7A3F9401B022801D934
:102BE000032032E7944808380068C0F3400000280A
:102BF000F1D091480838006820F0F800216940EAD7
:102C0000C1008D490839086019E08B480838006810
:102C100020F00100884908390860FEF781F905466F
:102C200006E0FEF77DF9401B022801D903200CE7DE
:102C3000814808380068C0F340000028F1D12078AE
:102C400000F00800082836D16069D0B17A486C30AD
:102C5000006840F0010078496C310860FEF760F9C7
:102C6000054606E0FEF75CF9401B022801D9032067
:102C7000EBE671486C300068C0F340000028F1D0EA
:102C800019E06D486C30006820F001006A496C3131
:102C90000860FEF745F9054606E0FEF741F9401BDE
:102CA000022801D90320D0E663486C300068C0F3E5
:102CB00040000028F1D1207800F00400042874D1ED
:102CC0005D483830006800F0805080B900BF5A4835
:102CD0003830006840F08050574938310860084665
:102CE000006800F08050009000BF00BF01265348EC
:102CF000006800F48070B0B95048006840F48070FB
:102D00004E490860FEF70CF9054606E0FEF708F9A3
:102D1000401B642801D9032097E64848006800F466
:102D200080700028F2D000BFA068012808D1424876
:102D30006830006840F001003F49683108602DE0CC
:102D4000A06868B93C486830006820F001003A4942
:102D5000683108600846006820F0040008601DE043
:102D6000A06805280DD134486830006840F00400A0
:102D70003149683108600846006840F00100086089
:102D80000CE02D486830006820F001002A496831C5
:102D900008600846006820F00400086000BFA068D2
:102DA000A8B1FEF7BDF8054609E02EE0FEF7B8F839
:102DB000401B41F28831884201D9032045E61E4874
:102DC00068300068C0F340000028EFD013E0FEF741
:102DD000A7F8054608E0FEF7A3F8401B41F288314A
:102DE000884201D9032030E6134868300068C0F3F8
:102DF00040000028EFD1012E07D10F48383000687D
:102E000020F080500C4938310860A069F0B30A48BE
:102E1000006800F00C00082868D0A06902284DD195
:102E200005480838006820F08070034908390860B8
:102E3000FEF776F805460AE00838024000700040C8
:102E4000FEF76EF8401B022801D90320FDE5294852
:102E50000068C0F340600028F2D1D4E907010843BC
:102E6000616A40EA81110122A06AC2EB500041EA86
:102E700000412C20005D41EA00613020005D41EA04
:102E800000701C49091D0860081F00E030E0006860
:102E900040F08070091F0860FEF742F8054606E022
:102EA000FEF73EF8401B022801D90320CDE511486A
:102EB0000068C0F340600028F2D019E00D480068B7
:102EC00020F080700B490860FEF72AF8054606E0FE
:102ED000FEF726F8401B022801D90320B5E5054876
:102EE0000068C0F340600028F2D101E00120ACE5A9
:102EF0000020AAE50038024070B504460D460CB922
:102F0000012070BD94F82C0028B9002084F82D0011
:102F1000204600F011F8022084F82C00211D2068C2
:102F2000FDF738FB2946D4E90002FDF787FB0120B5
:102F300084F82C000020E4E710B50446FDF756FEA7
:102F400010BD70B504460D4694F82C00022800D13F
:102F500070BD022084F82C0029462068FDF754FB40
:102F6000012084F82C000020F2E770B504460D46DD
:102F7000164694F82C00022800D170BD022084F877
:102F80002C00324629462068FDF745FB28680228B8
:102F900003D1052084F82C0002E0012084F82C00E5
:102FA0000020EAE7704770B58AB004460D46002657
:102FB000032084F83400606C032820D0B5F5805FCE
:102FC00004D1A06B40F08050A0631CE0B5F5006F09
:102FD00007D1204604F0C1F90646A06B3043A06338
:102FE00011E03DB9204604F083F90646A06B30435A
:102FF000A06308E0A06B40F00060A06303E0A06B5A
:1030000040F08050A063A06B40B140F2FF502168B7
:103010008863012084F834000AB070BD60680490B1
:10302000A0680590E0680690079560690890A0691F
:10303000099007A807C88DE80700206804A90EC9F1
:1030400003F022FE012084F834000020E4E77047FA
:1030500030B503460022586E020E90090870C2F384
:103060008300487002F003008870586EC0F3074276
:10307000CA70B3F86400C0F307220A7193F86420A1
:103080004A71986E020E4FF6FF7000EA0210C88077
:10309000986EC0F30742C88840EA1210C88002F058
:1030A0000F0008726820C05AC0F30722D009487286
:1030B000C2F380108872C2F34010C872C2F30010CD
:1030C000087300204873586C00283ED19007000D0B
:1030D00008616820C25C086940EA82000861D86E15
:1030E000020E086940EA92100861C2F3C200087536
:1030F00002F007004875D86EC0F307425009887582
:10310000C2F38200C8759007400F08766C20C05A41
:10311000C0F30722087E40EAD21008760869401CF6
:1031200058650C7E586DA41C0125A5406843586560
:103130000C7A0120A0409865D3E91504640A604325
:10314000D8654FF400741C6630E0586C012821D11A
:103150006820C25C9006800A0861D86E020E086979
:1031600040EA02200861D86EC0F3074208691043A4
:1031700008616C20C05AC0F307220869441C4FF450
:103180008060A4FB00045865D8654FF400749C650A
:103190001C660BE040F2FF501C68A063986B40F087
:1031A00080509863012083F8340030BDC2F3801052
:1031B00001F8190F9006400E48706C20C25C4878E8
:1031C00040EAD210487002F07F008870186F020E3B
:1031D000D009C870C2F341100871C2F3820048716F
:1031E0009007000F8871186FC0F30742887940EA92
:1031F00092108871C2F34010C8710020087202F06A
:10320000010048727020C05AC0F30722D0098872AA
:10321000C2F38010C872C2F340100873C2F30010EA
:103220004873C2F38100887302F00300C8737020F2
:10323000C25C500808740120487419390020B4E7B2
:103240000246506C0860906C4860D06C8860106DCD
:10325000C860506D0861906D4861D06D8861106ED6
:10326000C86100207047F8B50446042600250020F8
:1032700000906946204604F022F8054615B1A06B7F
:103280002843A0630098C0F343263046F8BD0000F1
:1032900070B5044600252068406BC0F3002000286C
:1032A00062D04FF48070216888632068C06B20F47E
:1032B0009D702168C863206B00F0080048B3206B44
:1032C00000F0020018B9206B00F0200050B1206817
:1032D00003F08CFA05462DB1A06B2843A06320466D
:1032E000FFF7B5FE40F2FF5021688863012084F8A3
:1032F0003400206B00F0010018B9206B00F00200D0
:1033000018B1204600F07EFAB1E0204600F080FAC5
:10331000ADE0206B00F080000028F5D0206B00F0BD
:10332000200050B1206803F061FA05462DB1A06B72
:103330002843A0632046FFF78AFE206B00F00100BF
:103340000028E1D1206B00F002000028DCD12068C9
:10335000C06A20F008002168C862012084F83400A7
:10336000204600F055FA82E02068406BC0F38030C0
:1033700038B14FF4804021688863204604F04CF84F
:1033800075E02068406BC0F3C03038B14FF40040A6
:1033900021688863204603F07FFF68E02068406B67
:1033A00000F03A0008B1012000E0002000285ED0C3
:1033B0002068406BC0F3400018B1A06B40F00200E1
:1033C000A0632068406BC0F3C00018B1A06B40F050
:1033D0000800A0632068406BC0F3401018B1A06BD8
:1033E00040F02000A0632068406BC0F3001018B1CB
:1033F000A06B40F01000A06340F2FF50216888638A
:103400002068C06B20F49D702168C863206B00F0B9
:10341000800010B3206C50B11548216C0865206CF9
:10342000FDF7D2F918B3206C03F041FD1FE0E06B0B
:1034300050B11048E16B0865E06BFDF7C5F9B0B11C
:10344000E06B03F005FD12E00020A063012084F88A
:1034500034002046FFF7A6FD09E0206B00F00800CD
:1034600028B1012084F834002046FFF7F0FD70BD3C
:10347000AF6E0008516E000810B504460CB901206B
:1034800010BD94F8340020B900202077204600F0C9
:1034900053F8032084F83400204600F008F8002098
:1034A000A0632063012084F834000020E8E730B5F1
:1034B00089B00446002500200390049005900690F2
:1034C00007907620089006A807C88DE807002068B6
:1034D00003A90EC903F0D8FB2068406820F480706F
:1034E00021684860206803F0E9FB2068406840F4E8
:1034F0008070216848600220FDF764FB204603F0DD
:1035000029FE054645B1012084F83400A06B28430C
:10351000A063012009B030BD204603F09DFD0546A3
:103520003DB1012084F83400A06B2843A063012042
:10353000F0E70020EEE7000010B586B00446142145
:1035400001A8FCF7BFFE5E49206888427DD100BF1C
:103550005C48006840F400605A490860084600680A
:1035600000F40060009000BF00BF00BF5548143851
:10357000006840F0040053491439086008460068A8
:1035800000F00400009000BF00BF00BF08460068C4
:1035900040F0080008600846006800F0080000904D
:1035A00000BF00BF4FF4F8500190022002900120AC
:1035B0000390032004900C20059001A94248FDF7D8
:1035C0008BFB042001900220029001200390032035
:1035D00004900C20059001A93C48FDF77DFB3C4878
:1035E0003C4908604FF00060486000213948816024
:1035F000C1604FF48061016189004161890081618E
:103600002021C1614FF44031016204214162032154
:1036100081624FF40001C16289100163FDF70CFA69
:1036200008B1FCF772FF00BF2A48E063846300BF63
:1036300027484830284908604FF000604860402122
:10364000254881600021C16000E036E04FF48061D0
:10365000016189004161890081612021C1614FF4CC
:103660004031016204214162032181624FF4000173
:10367000C16289100163FDF7DFF908B1FCF745FF6E
:1036800000BF15482064846300BF0022012131205F
:10369000FEF734FA3120FEF721FA002202213B2006
:1036A000FEF72CFA3B20FEF719FA002202214520F2
:1036B000FEF724FA4520FEF711FA06B010BD00000F
:1036C000002C01404438024000080240000C024037
:1036D0005864024070C10420D0C104202DE9F0419B
:1036E00086B00446884616461D460027B8F1000FEE
:1036F00007D1A06B40F00060A063012006B0BDE8D8
:10370000F08194F83400012876D10020A06371196B
:10371000E06D814205D9A06B40F00070A0630120EC
:10372000ECE7032084F8340000202168C862206898
:10373000C06B40F495702168C8633048E16BC86382
:103740002F48E16BC8640020E16B08656A029308AA
:10375000226802F180014246E06BFDF7E3F9206840
:10376000C06A40F008002168C862606C012800D07F
:1037700076024FF0FF300090680201909020029096
:1037800002200390002004900120059069462068E3
:1037900003F084F84FF40071206802F0D7FE07466A
:1037A00057B140F2FF5021688863A06B3843A06393
:1037B000012084F83400A1E7012D07D9822020637D
:1037C0003146206802F02EFF074606E08120206384
:1037D0003146206802F043FF07465FB140F2FF50D8
:1037E00021688863A06B3843A063012084F834000B
:1037F00084E701E0002081E702207FE70B6E0008EC
:10380000A56D00080121014A117070474500022092
:103810000121014A11707047440002202DE9F04156
:1038200086B00446884616461D460027B8F1000FAC
:1038300007D1A06B40F00060A063012006B0BDE896
:10384000F08194F83400012875D10020A06371192B
:10385000E06D814205D9A06B40F00070A0630120AB
:10386000ECE7032084F8340000202168C862206857
:10387000C06B40F01A002168C8633048216CC863EF
:103880002F48216CC8640020216C0865606C0128F9
:1038900000D076024FF40071206802F057FE074610
:1038A00057B140F2FF5021688863A06B3843A06392
:1038B000012084F83400C1E7012D07D9A02020633E
:1038C0003146206802F0B0FF074606E090202063F2
:1038D0003146206802F0C5FF074657B140F2FF505D
:1038E00021688863A06B3843A063012084F834000A
:1038F000A4E72068C06A40F008002168C862690235
:103900008B08216801F180024146206CFDF70AF91D
:103910004FF0FF300090680201909020029000204C
:1039200003900490012005906946206802F0B6FFDC
:10393000002083E7FFE7022080E700009D6E00087B
:10394000A56D0008042808D14FF0E021096941F075
:1039500004014FF0E022116107E04FF0E021096916
:1039600021F004014FF0E0221161704770B5044668
:103970002546681EB0F1807F01D301200FE0681E4C
:103980004FF0E02148610F214FF0FF3007F064FF56
:1039900000204FF0E021886107200861002070BD01
:1039A000704770477047000030B502460B4600BFB5
:1039B00092F83C00012801D1022030BD012082F89C
:1039C0003C0000BF022082F83D001068416810688A
:1039D0008468114D1068A84203D0104D1068A842A9
:1039E00003D121F470015868014321F07001186877
:1039F000014324F080049868044310684160106813
:103A00008460012082F83D0000BF002082F83C0065
:103A100000BF00BFD1E700000000014000040140EA
:103A200010B504460CB9012010BD94F83D0028B92A
:103A3000002084F83C00204600F00CF8022084F8B6
:103A40003D00211D206803F07BFE012084F83D002D
:103A50000020E9E738B504460D492068884215D1B1
:103A600000BF0C48006840F002000A4908600846A0
:103A7000006800F00200009000BF00BF0022114665
:103A80001D20FEF73BF81D20FEF728F838BD00008A
:103A9000000400404038024001460868C06840F019
:103AA00001000B68D86008688068084B00EA0302D0
:103AB000062A08D0B2F5803F05D00868006840F0BB
:103AC00001000B681860002070470000070001002B
:103AD0002DE9F04104460D4600BF94F83C00012852
:103AE00002D10220BDE8F081012084F83C0000BF33
:103AF000022084F83D00206886683748064026F496
:103B00007F46206886602868502833D00CDC202847
:103B100050D004DC00284BD0102851D149E0302887
:103B200049D040284CD139E060282DD0702807D0EA
:103B3000B0F5805F03D0B0F5005F41D10DE040E00B
:103B4000D5E902136A68206803F066FE206886687B
:103B500046F077062068866033E0D5E902136A688C
:103B6000206803F059FE2068806840F48040216896
:103B7000886026E0EA686968206803F061FE5021E9
:103B8000206803F054FE1CE0EA686968206803F0CE
:103B90006AFE6021206803F04AFE12E0EA68696864
:103BA000206803F04DFE4021206803F040FE08E04D
:103BB00000BF00BF00BF2968206803F038FE00E0A6
:103BC00000BF00BF012084F83D0000BF002084F842
:103BD0003C0000BF00BF85E788FFFEFF704710B5BF
:103BE000044620680069C0F34000D8B12068C0686E
:103BF000C0F34000B0B16FF00200216808610120FD
:103C000020772068806900F0030018B12046FFF794
:103C1000E5FF05E0204600F0BEF8204600F0BCF8C5
:103C20000020207720680069C0F38000D8B12068A8
:103C3000C068C0F38000B0B16FF004002168086173
:103C4000022020772068806900F4407018B1204677
:103C5000FFF7C4FF05E0204600F09DF8204600F085
:103C60009BF80020207720680069C0F3C000D8B11D
:103C70002068C068C0F3C000B0B16FF008002168D0
:103C80000861042020772068C06900F0030018B1A3
:103C90002046FFF7A3FF05E0204600F07CF8204611
:103CA00000F07AF80020207720680069C0F3001047
:103CB000D8B12068C068C0F30010B0B16FF0100038
:103CC00021680861082020772068C06900F44070EE
:103CD00018B12046FFF782FF05E0204600F05BF8B0
:103CE000204600F059F8002020772068006900F095
:103CF000010058B12068C06800F0010030B16FF0D9
:103D0000010021680861204600F048F82068006939
:103D1000C0F3C01058B12068C068C0F3C01030B103
:103D20006FF08000216808612046FFF73AFE2068A6
:103D30000069C0F3002058B12068C068C0F3C0100B
:103D400030B16FF48070216808612046FFF728FECB
:103D500020680069C0F3801058B12068C068C0F3C3
:103D6000801030B16FF0400021680861204600F0FB
:103D700029F820680069C0F3401058B12068C06875
:103D8000C0F3401030B16FF0200021680861204678
:103D9000FFF708FE10BD70477047000010B50446DD
:103DA00006492068884207D101210548FDF7A8F897
:103DB00002210348FDF7A4F810BD000000040040F4
:103DC00000040240704770472DE9F0470446206820
:103DD000C569206806682068876805F00F08B8F193
:103DE000000F0CD105F0200048B106F0200030B1E2
:103DF000206E10B12046216E8847BDE8F087B8F1EB
:103E0000000F71D007F0010018B906F49070002877
:103E100079D005F0010048B106F4807030B101207E
:103E200021680862E06F40F00100E06705F00200E1
:103E300048B107F0010030B1022021680862E06F4C
:103E400040F00400E06705F0040048B107F001000D
:103E500030B1042021680862E06F40F00200E067A2
:103E600005F0080060B106F0200010B907F001006D
:103E700030B1082021680862E06F40F00800E06778
:103E8000E06F80B305F0200038B106F0200020B1CB
:103E9000206E10B12046216E8847D4F87C902068AF
:103EA000806800F04000402802D009F0080020B3EC
:103EB000204603F098FD2068806800F0400040280C
:103EC00017D12068806820F0400021688860E06E8B
:103ED00058B11948E16E0865E06EFCF775FC10B149
:103EE000E06E016D88470DE00DE02046FFF76BFFA7
:103EF00008E02046FFF767FF04E02046FFF763FF76
:103F00000020E06779E705F0800040B106F080000E
:103F100028B1606E10B12046616E88476DE705F0EC
:103F2000400030B106F0400018B1204603F06CFDAF
:103F300063E700BF61E70000CF79000810B50446D1
:103F40000CB9012010BDA06900B100E000BF606F96
:103F500028B9002084F87000204600F029F82420B9
:103F600060672068006820F0010021680860204632
:103F700003F0C4FD012800D1E4E7606A10B12046D7
:103F800003F085FC2068406820F490402168486078
:103F90002068806820F02A00216888602068006816
:103FA00040F0010021680860204603F0ECFCC9E7FE
:103FB00010B586B00446142101A8FCF783F93B49EB
:103FC0002068884270D100BF3948006840F0100076
:103FD000374908600846006800F01000009000BFF4
:103FE00000BF00BF32481438006840F0010030497B
:103FF000143908600846006800F00100009000BF16
:1040000000BF4FF4C0600190022002900020039096
:10401000032004900720059001A92648FCF75CFEC8
:104020002548264908604FF0006048600021234879
:104030008160C1604FF48061016100214161816153
:10404000C16101624162FCF7F7FC08B1FCF75DFA5F
:1040500000BF1A48E066846300BF174878301849EB
:1040600008604FF0006048604021154881600021E1
:10407000C1604FF480610161002141618161C161D2
:1040800001624162FCF7D8FC08B1FCF73EFA00BFC0
:104090000B48A066846300BF002211462520FDF76F
:1040A0002DFD2520FDF71AFD06B010BD00100140C2
:1040B000443802400000024040640240D8C304205B
:1040C00038C4042010B50346986F202865D101B18B
:1040D0000AB9012010BD00BF93F87000012801D17A
:1040E0000220F7E7012083F8700000BF5965A3F8AC
:1040F0005820A3F85A200020186600BF9868B0F531
:10410000805F0AD1186920B940F2FF10A3F85C0063
:1041100020E0FF20A3F85C001CE0986848B918690B
:1041200018B9FF20A3F85C0014E07F20A3F85C001E
:1041300010E09868B0F1805F09D1186918B97F2044
:10414000A3F85C0006E03F20A3F85C0002E000203A
:10415000A3F85C0000BF0020D86722209867186889
:10416000806840F001001C68A0609868B0F5805F2E
:1041700004D1186910B90A48186601E009481866A0
:1041800000BF002083F8700000BF1868006840F48A
:1041900090701C68206000209CE702209AE70000D5
:1041A000297A0008957A00081D4A0168914236D1A3
:1041B0001C49098801F4004189BB1A49098801F4A6
:1041C000804171B1184909780A2903D00021154AA4
:1041D000118024E01349098841F40041114A1180FB
:1041E0001DE0114909780D2906D10E49098841F4CD
:1041F00080410C4A118012E00B490978094A128863
:10420000C2F30D02094B995406490988491C054A15
:10421000118011460988632901DD00211180704752
:10422000001001404800022046000220F4C2042091
:104230002DE9F84F04460E4617469946606F202830
:104240005CD106B117B90120BDE8F88F00BF94F822
:104250007000012801D10220F6E7012084F87000E7
:1042600000BF0020E06721206067FCF759FE82460E
:10427000A4F85070A4F85270A068B0F5805F04D123
:10428000206910B90025B04602E035464FF000081D
:104290001DE05346002280212046CDF8009003F017
:1042A000FFFD08B10320CFE745B9B8F80000C0F31F
:1042B00008002168886208F1020803E02878216874
:1042C00088626D1CB4F85200401EA4F85200B4F885
:1042D00052000028DDD15346002240212046CDF86F
:1042E000009003F0DDFD08B10320ADE720206067FA
:1042F00000BF002084F8700000BFA5E70220A3E7FC
:1043000070472DE9F04705468846D5F800904E469F
:10431000444606F5A06000EB4410806800F00400FD
:10432000042812D1042106F5A06000EB441081603E
:1043300006F5A06000EB4410C06840F0020106F5ED
:10434000A06000EB4410C1606DE006F5A06000EBDA
:104350004410806800F02000202806D1202106F5B6
:10436000A06000EB441081605DE006F5A06000EB0A
:104370004410806800F00800082825D106F5A060E8
:1043800000EB4410C06840F0020106F5A06000EBAD
:104390004410C160052104EB840205F1380000EBF4
:1043A000C20080F82510102106F5A06000EB441033
:1043B0008160082106F5A06000EB44108160E1B245
:1043C000286806F047FC2EE006F5A06000EB4410DC
:1043D000806800F48060B0F5806F24D106F5A0609D
:1043E00000EB4410C06840F0020106F5A06000EB4D
:1043F0004410C160E1B2286806F02CFC102106F5DB
:10440000A06000EB44108160082104EB840205F1F8
:10441000380000EBC20080F82510C90106F5A06045
:1044200000EB4410816006F5A06000EB441080684A
:1044300000F40070B0F5007F17D106F5A06000EB26
:104440004410C06840F0020106F5A06000EB441083
:10445000C160E1B2286806F0FDFB4FF4007106F57B
:10446000A06000EB4410816001E206F5A06000EB63
:104470004410806800F0010000287ED02869A8B1AF
:1044800004EB840105F1380000EBC100016906F579
:10449000A06000EB44100069C0F31200091A04EB9D
:1044A000840205F1380000EBC2004161012104EBF8
:1044B000840205F1380000EBC20080F825100021CD
:1044C00004EB840205F1380000EBC2000162012117
:1044D00006F5A06000EB4410816004EB840105F157
:1044E000380000EBC100C07940B104EB840105F154
:1044F000380000EBC100C079022816D106F5A06093
:1045000000EB4410C06840F0020106F5A06000EB2B
:104510004410C160E1B2286806F09CFB102106F54A
:10452000A06000EB441081602BE004EB840105F1F6
:10453000380000EBC100C079032822D106F5A06045
:1045400000EB4410006840F0005106F5A06000EB5D
:1045500044100160012104EB840205F1380000EBF6
:10456000C20080F8241004EB840305F1380000EB4E
:10457000C30090F82420E1B200E013E02846FCF7E5
:104580008BFD04EB840105F1380000EBC100007ED7
:1045900080F0010104EB840205F1380000EBC20059
:1045A000017664E106F5A06000EB4410806800F03D
:1045B0000200022871D106F5A06000EB4410C0682B
:1045C00020F0020106F5A06000EB4410C16004EB8E
:1045D000840105F1380000EBC10090F825000128A6
:1045E00009D1012104EB840205F1380000EBC2007F
:1045F00080F824108BE004EB840105F1380000EB17
:10460000C10090F82500052809D1052104EB84029A
:1046100005F1380000EBC20080F8241077E004EBCD
:10462000840105F1380000EBC10090F82500062850
:1046300009D004EB840105F1380000EBC10090F8CB
:104640002500082842D104EB840105F1380000EB75
:10465000C100006A401C04EB840205F1380101EB43
:10466000C201086204EB840105F1380000EBC100CF
:10467000006A032812D9002104EB840205F13800F6
:1046800000EBC2000162042104EB840205F1380052
:1046900000EBC20080F8241009E04BE0022104EB9B
:1046A000840205F1380000EBC20080F8241006F502
:1046B000A06000EB4410076827F0804747F00047F0
:1046C00006F5A06000EB4410076020E004EB8401D5
:1046D00005F1380000EBC10090F82500032816D141
:1046E000022104EB840205F1380000EBC20080F8DF
:1046F000241006F5A06000EB4410076827F08047FF
:1047000047F0004706F5A06000EB44100760022167
:1047100006F5A06000EB4410816004EB840305F112
:10472000380000EBC30090F82420E1B22846FCF7E3
:10473000B3FC9CE006F5A06000EB4410806800F03C
:10474000800080282ED106F5A06000EB4410C068E0
:1047500040F0020106F5A06000EB4410C16004EBDC
:10476000840105F1380000EBC100006A401C04EB35
:10477000840205F1380101EBC2010862062104EB55
:10478000840205F1380000EBC20080F82510E1B288
:10479000286806F05FFA802106F5A06000EB44105F
:1047A000816064E006F5A06000EB4410806800F0D2
:1047B000100010285BD104EB840105F1380000EBF8
:1047C000C100C079032818D1002104EB840205F14F
:1047D000380000EBC200016206F5A06000EB441057
:1047E000C06840F0020106F5A06000EB4410C16013
:1047F000E1B2286806F02EFA33E004EB840105F1FB
:10480000380000EBC100C07940B104EB840105F130
:10481000380000EBC100C079022822D1002104EB4E
:10482000840205F1380000EBC20001622869C0B9BA
:10483000032104EB840205F1380000EBC20080F88C
:10484000251006F5A06000EB4410C06840F002019E
:1048500006F5A06000EB4410C160E1B2286806F0E4
:10486000F9F9102106F5A06000EB44108160BDE865
:10487000F0872DE9F04705460F46D5F800904E46E3
:104880003C4606F5A06000EB4410806800F0040090
:10489000042812D1042106F5A06000EB44108160C9
:1048A00006F5A06000EB4410C06840F0020106F578
:1048B000A06000EB4410C1607EE206F5A06000EB52
:1048C0004410806800F02000202830D1202106F517
:1048D000A06000EB4410816004EB840105F1380016
:1048E00000EBC10040790128E6D1002104EB8402ED
:1048F00005F1380000EBC2004171022104EB840293
:1049000005F1380000EBC20080F8241006F5A06025
:1049100000EB4410C06840F0020106F5A06000EB17
:104920004410C160E1B2286806F094F944E206F54B
:10493000A06000EB4410806800F0400040282FD1B8
:10494000042104EB840205F1380000EBC20080F87A
:104950002510012104EB840205F1380000EBC200B0
:104960004171002104EB840205F1380000EBC20024
:10497000016206F5A06000EB4410C06840F002013F
:1049800006F5A06000EB4410C160E1B2286806F0B3
:1049900061F9402106F5A06000EB441081600BE254
:1049A00006F5A06000EB4410806800F40070B0F5DC
:1049B000007F17D106F5A06000EB4410C06840F0FE
:1049C000020106F5A06000EB4410C160E1B2286866
:1049D00006F040F94FF4007106F5A06000EB4410BA
:1049E0008160E9E106F5A06000EB4410806800F00A
:1049F000010030B3002104EB840205F1380000EB24
:104A0000C200016206F5A06000EB4410C06840F0EF
:104A1000020106F5A06000EB4410C160E1B2286815
:104A200006F018F9012106F5A06000EB4410816042
:104A300004EB840205F1380000EBC20080F8251079
:104A4000BAE106F5A06000EB4410806800F00800B1
:104A500008281FD1082106F5A06000EB44108160F2
:104A600006F5A06000EB4410C06840F0020106F5B6
:104A7000A06000EB4410C160E1B2286806F0EAF8DB
:104A8000052104EB840205F1380000EBC20080F838
:104A9000251091E106F5A06000EB4410806800F05D
:104AA000100010283FD1002104EB840205F13800EA
:104AB00000EBC2000162032104EB840205F138001F
:104AC00000EBC20080F8251004EB840105F13800EA
:104AD00000EBC100407978B904EB840105F138009E
:104AE00000EBC100007938B9012104EB840205F123
:104AF000380000EBC200417106F5A06000EB4410E5
:104B0000C06840F0020106F5A06000EB4410C160EF
:104B1000E1B2286806F09EF8102106F5A06000EBCF
:104B20004410816048E106F5A06000EB4410806805
:104B300000F0800080281FD106F5A06000EB441033
:104B4000C06840F0020106F5A06000EB4410C160AF
:104B5000E1B2286806F07EF8062104EB840205F134
:104B6000380000EBC20080F82510802106F5A06017
:104B700000EB441081601FE106F5A06000EB4410DB
:104B8000806800F48060B0F5806F25D106F5A060E4
:104B900000EB4410C06840F0020106F5A06000EB95
:104BA0004410C160E1B2286806F054F8102106F5FF
:104BB000A06000EB44108160890106F5A06000EB65
:104BC00044108160082104EB840205F1380000EBF9
:104BD000C20080F82510EFE006F5A06000EB44105D
:104BE000806800F0020002289CD106F5A06000EB6E
:104BF0004410C06820F0020106F5A06000EB4410EC
:104C0000C16004EB840105F1380000EBC10090F8AD
:104C1000250001282BD1012104EB840205F1380085
:104C200000EBC20080F8241004EB840105F1380089
:104C300000EBC100C079022808D004EB840105F123
:104C4000380000EBC100C07903280FD104EB8401C8
:104C500005F1380000EBC100407E80F0010104EB5B
:104C6000840205F1380000EBC200417692E004EBCB
:104C7000840105F1380000EBC10090F825000328FD
:104C800009D1022104EB840205F1380000EBC200D7
:104C900080F824107EE004EB840105F1380000EB7D
:104CA000C10090F82500042809D1022104EB8402F8
:104CB00005F1380000EBC20080F824106AE004EB34
:104CC000840105F1380000EBC10090F825000528AB
:104CD00009D1052104EB840205F1380000EBC20084
:104CE00080F8241056E004EB840105F1380000EB55
:104CF000C10090F82500062809D004EB840105F1D5
:104D0000380000EBC10090F82500082842D104EBE0
:104D1000840105F1380000EBC100006A401C04EB7F
:104D2000840205F1380101EBC201086204EB840141
:104D300005F1380000EBC100006A032811D90021F9
:104D400004EB840205F1380000EBC200016204218B
:104D500004EB840205F1380000EBC20080F8241057
:104D600008E0022104EB840205F1380000EBC200E8
:104D700080F8241006F5A06000EB4410D0F8008005
:104D800028F0804848F0004806F5A06000EB441089
:104D9000C0F80080022106F5A06000EB441081609D
:104DA00004EB840305F1380000EBC30090F82420E5
:104DB000E1B22846FCF770F9BDE8F0877CB50446FF
:104DC00026683546D5F840040190D5F84004009097
:104DD000009820F02E000090019800F002000228B8
:104DE00010D1019800F0010040B12068806920F0E6
:104DF0000050216888612046FCF798F8009840F040
:104E000002000090019800F00800082839D10098AD
:104E100040F008000090019800F00400042821D11F
:104E2000A06902280FD1019800F4C020B0F5802FAE
:104E300004D10221206806F021FA0CE0012120684B
:104E400006F01CFA07E0E068032804D14EF6602162
:104E500040F2044041512046FCF77FFB2046FCF71E
:104E600065F80EE02046FCF771FBD5F8400420F011
:104E70002E00C5F840042068806940F00050216889
:104E80008861019800F02000202803D1009840F0AC
:104E9000200000900098C5F840047CBD2DE9F05F2B
:104EA0000546D5F800A057462868D0F8208008F0BD
:104EB0000F04C8F3434BC8F30A16BBF1020F09D025
:104EC000BBF1030F66D0BBF1050F61D0BBF1070F3B
:104ED0005FD160E0002E5AD004EB840105F1380068
:104EE00000EBC100C068E8B3B2B204EB840C05F17A
:104EF000380303EBCC03D968286806F0E6F904EB25
:104F0000840105F1380000EBC100C068811904EB91
:104F1000840205F1380000EBC200C16004EB84019B
:104F200005F1380000EBC1004069811904EB8402EF
:104F300005F1380000EBC200416107F5A06000EB0D
:104F4000441000691649084060B107F5A06000EB05
:104F50004410D0F8009029F0804949F0004907F545
:104F6000A06000E013E000EB4410C0F8009004EBF8
:104F7000840105F1380000EBC100007E80F00101E2
:104F800004EB840205F1380000EBC200017603E077
:104F900002E000BF00BF00BF00BFBDE8F09F0000FF
:104FA0000000F81F00BFFEE710B5002210211248D4
:104FB000FBF7AFFF1048006820F440600E4908601E
:104FC0000846006840F480600860002220210A48FA
:104FD000FBF79FFF022007F08DF901221021064800
:104FE000FBF797FF022007F085F900221021024805
:104FF000FBF78FFF10BD0000001C024000B587B01A
:1050000000BF1248006840F0800010490860084660
:10501000006800F08000019000BF00BF30200290C7
:105020000120039004900220059002A90848FBF794
:1050300053FE012220210648FBF76BFF01221021BD
:105040000348FBF766FF07B000BD000030380240A0
:10505000001C024010B5002210211248FBF759FF36
:105060001048006820F440600E4908600846006857
:1050700040F480600860012220210A48FBF749FFC4
:10508000022007F037F9012210210648FBF741FF03
:10509000022007F02FF9002210210248FBF739FF08
:1050A00010BD0000001C024070B5054600241848E1
:1050B000006820F4406016490860084600680860EF
:1050C00000261AE0002210211148FBF722FF0220DF
:1050D00007F010F9012210210D48FBF71AFF6006B6
:1050E000040E20210A48FBF703FF08B1601CC4B27C
:1050F000012007F0FFF8701CC6B2082EE2DB15B9DC
:10510000FFF7A8FF01E0FFF74FFF204670BD00004A
:10511000001C024070B504461C48006820F4406042
:105120001A4908600846006840F480600860002260
:1051300010211648FBF7EDFE002523E0E00928B119
:10514000012220211148FBF7E4FE04E00022202187
:105150000E48FBF7DEFE6006040E022007F0CAF8D8
:10516000012210210948FBF7D4FE022007F0C2F803
:10517000002210210548FBF7CCFE022007F0BAF808
:10518000681CC5B2082DD9DB70BD0000001C0240B0
:1051900010B51348006820F44060114908600846C3
:1051A000006840F480600860012220210C48FBF771
:1051B000B0FE012210210A48FBF7ABFE042007F0E5
:1051C00099F8002220210648FBF7A3FE042007F0EF
:1051D00091F8002210210248FBF79BFE10BD000051
:1051E000001C024010B51348006820F440601149CB
:1051F00008600846006840F48060086000221021C2
:105200000C48FBF786FE002220210A48FBF781FEAE
:10521000042007F06FF8012210210648FBF779FE01
:10522000042007F067F8012220210248FBF771FEF5
:1052300010BD0000001C024010B500241748006893
:1052400020F44060154908600846006808600122A3
:1052500020211248FBF75DFE012007F04BF80122E8
:1052600010210E48FBF755FE012007F043F807E038
:10527000601CC4B2FA2C03DDFFF7B4FF012010BD9F
:1052800020210648FBF734FE0028F1D1002210212E
:105290000248FBF73EFE0020F1E70000001C024040
:1052A00010B50446012C01D12D4908702C48007816
:1052B000002839D008212B48FBF71AFE80B10421C1
:1052C0002848FBF715FE58B14FF400512648FBF76C
:1052D0000FFE28B101212548FBF70AFE012823D142
:1052E0000A20FBF76FFC00201D49087008211D48AB
:1052F000FBF7FEFD08B9012010BD04211948FBF79A
:10530000F7FD08B90220F7E74FF400511648FBF704
:10531000EFFD08B90320EFE701211448FBF7E8FD92
:1053200001281BD10420E7E708210E48FBF7E0FD28
:10533000012813D104210B48FBF7DAFD01280DD118
:1053400041030948FBF7D4FD012807D10121074893
:10535000FBF7CEFD10B90120014908700020CBE712
:1053600000000220001C0240000802400000024031
:1053700010B50246012000E050430B1EA1F10104CC
:10538000E1B2F9D110BD00000949487530B98988EA
:10539000074AD18211460988118308E0012806D105
:1053A00003490988024AD1821146898811837047CE
:1053B0003CBE042070B5114B5B7D6BB10F4BDB69BC
:1053C0000E4D2D6805FB01056B430C4D2D7D0C4EDC
:1053D00056F82550EA520FE0084B1B68074D6D68E0
:1053E0002D1A03FB0513054DED696B43034D2D7D10
:1053F000034E56F82550EA5270BD00003CBE042012
:105400003C00022018B5044607480094008B401E5B
:1054100083B20548C08A401E82B20021084600F0CF
:1054200007F80248046018BD3CBE042008000220B2
:105430002DE9F84F04460D4616464FF0000CDFF8F4
:105440003C9199F81590B9F1000F04D020462946F7
:1054500032461F4611E02846DFF82091D9F8049023
:10546000A9EB0609A9F101011A46DFF81091D9F854
:105470000490A9EB0409A9F10107DFF80091B9F83C
:105480000090A2EB000A0AF1010AA9EB0A091FFA2F
:1054900089F8DFF8E89099F81490DFF8E4A05AF85A
:1054A0002990DFF8D8A0DAF81CA0DFF8D0B0DBF83C
:1054B00000B00BFB010B0AFB0B9E00BFDFF8C49092
:1054C000D9F8009049F40009DFF8B8A0CAF80090B4
:1054D000D146D9F8009009F40009CDF8009000BF3A
:1054E00000BFDFF8A490D9F8009029F00109DFF897
:1054F00098A0CAF800904FF44039CAF800904FF0D5
:105500000209CAF83490D146C9F84080C9F83CE095
:10551000A7EB010909F10109A2EB000A0AF1010A4E
:1055200049EA0A49DFF860A0CAF84490DDF82890FB
:10553000CAF83890D146D9F8009049F00109CAF864
:10554000009005E00CF1010CBCF5001F00D308E051
:10555000DFF83490D9F8049009F00209B9F1000F8E
:10556000F0D000BFDFF82090D9F8089049F0020988
:10557000DFF814A0CAF80890BDE8F88F3CBE0420FC
:105580003C0002203038024000B0024008B54FF421
:10559000F070184908604FF4887048600120088155
:1055A0004881282088810820C88105200882082099
:1055B00048820220C861104810490860002000F0AD
:1055C00039F80C48808880B200900A48008883B27D
:1055D00000221146104600F015F80020FFF7D4FE17
:1055E000012220210648FBF794FC4FF6FF70FFF7DD
:1055F00009FF08BD3CBE0420000000C03C000220A2
:10560000000402402DE9F04104460E4617461D46AF
:10561000DDF8188023463A4631460548FCF7A4F9E0
:105620002346424629460248FCF7D4F9BDE8F081FA
:105630005CBE042001490875704700003CBE042090
:10564000F0B58E880768FF68C7F30B473E44330404
:1056500006688436802707FB0266766806F4704782
:10566000066884364FF0800C0CFB026677600E688B
:105670000768FF68C7F30B473E44761C1E43076864
:1056800084370CFB02777E608E890768FF68C7F35A
:105690000A073E44330406688436802707FB026607
:1056A000B66806F47047066884360CFB0266B7607D
:1056B0008E680768FF68C7F30A073E44761C46EA0F
:1056C0000307066884360CFB0266B76006688436FA
:1056D000802707FB0266366926F0070706688436CE
:1056E0000CFB026637610F69066884360CFB0266A4
:1056F00037613126765C33023226765C34040E7EC6
:10570000350606688436802707FB0266B6690027DF
:10571000066884360CFB0266B76191F830601E4360
:10572000264346EA0507066884360CFB0266B76125
:1057300006688436802707FB0266766926F0FF0735
:10574000066884360CFB026677614F69066884360A
:105750000CFB0266776106688436802707FB0266C9
:10576000F66940F20777BE43076884370CFB02777F
:10577000FE61D1E907763743066884360CFB026682
:10578000F76106688436802707FB0266B66A002741
:10579000066884360CFB0266B7624F6A0668843678
:1057A0000CFB0266B7620E690EB9042313E00E69A2
:1057B000012E01D103230EE00E69042E08D00E69DC
:1057C000022E05D00E69032E02D00E69072E01D1DC
:1057D000022300E0012306688436802707FB026667
:1057E000F66A06F0E027066884364FF0800C0CFB62
:1057F0000266F762D1E90076F61B5E43F61C0F8D58
:105800005F4346EA0747066884360CFB0266F76288
:1058100006688436802707FB0266366BF70AFF02AC
:10582000066884360CFB02663763CF6A06688436E6
:105830000CFB0266376306688436D701F65946F0DA
:105840000107066884364FEAC21C46F80C70F0BDAA
:105850002DE9F84F80460F4616461C46BB462046AB
:10586000E31704EB5373DB1021464FEAE47C04EBAF
:105870005C7C4FEAEC0CA4EBCC0CBCF1000F02D02A
:105880004FF0010C01E04FF0000C6344224604EBA2
:10589000D27C4FEA6C0C03FB0CF3DBB20093A6F155
:1058A0002000C6B200255EE00C2C07D106EB4600B6
:1058B0002F4901EB800010F805901BE0102C05D15A
:1058C0002C4800EB061010F8059013E0182C07D1B7
:1058D00006EBC600284901EB800010F8059009E0AE
:1058E000202C05D1254800EBC61010F8059001E0EA
:1058F000BDE8F88F4FF0000A2FE009F0800030B1CA
:105900001F48394602684046FFF754FD07E00A98F1
:1059100028B91C48394602684046FFF74BFD4FEA5C
:1059200049604FEA1069781C87B21748008BB8426B
:1059300000DCDDE7A7EB0B00A0420AD15F4608F1CF
:1059400001001FFA80F81048C08A404500DCCFE70C
:1059500006E00AF1010000F0FF0ABAF1080FCCDB03
:1059600000BF681CC5B2009885429DDB00BFBFE741
:105970007AF40008EEF80008DEFE00083A0C010890
:1059800004000220080002203CBE04202DE9FF4F45
:1059900081B0074691461E460E9D4FF0000A002436
:1059A00039E0301B401EC1B20A20FFF7E1FCB9FB11
:1059B000F0F00A21B0FBF1F201FB1208BAF1000F7E
:1059C00016D1701EA04213DDB8F1000F0ED10020D9
:1059D000AB4605EBDB71491001FB0471009088B206
:1059E0002B4620220299FFF733FF12E04FF0010A05
:1059F0000020AB4605EBDB71491001FB0471009000
:105A000088B208F13001CAB22B460299FFF720FF95
:105A100000BF601CC4B2B442C3DB05B0BDE8F08F68
:105A2000F8B506460F4615461C460EE000200090CD
:105A300022782B4639463046FFF70AFF284605EB09
:105A4000D07106EB61018EB2641C20787E2802DCE6
:105A500020782028EADAF8BD08B500BF0E480068B3
:105A600040F480000C4908600846006800F480009B
:105A7000009000BF00BF002211463A20FCF73EF81C
:105A80003A20FCF72BF8002211464620FCF736F8A6
:105A90004620FCF723F808BD3038024000B58FB02F
:105AA00000200B900C900D900E900790089009909C
:105AB0000A901C216846FAF705FC3448344908600E
:105AC0004FF4807048600221314881600021C1603C
:105AD00001614FF40031416100218161C16140F2F7
